{
  "_format": "hh-sol-artifact-1",
  "contractName": "Grant",
  "sourceName": "contracts/Grant.sol",
  "abi": [
    {
      "inputs": [
        {
          "internalType": "address",
          "name": "initialOwner",
          "type": "address"
        }
      ],
      "stateMutability": "nonpayable",
      "type": "constructor"
    },
    {
      "inputs": [
        {
          "internalType": "address",
          "name": "owner",
          "type": "address"
        }
      ],
      "name": "OwnableInvalidOwner",
      "type": "error"
    },
    {
      "inputs": [
        {
          "internalType": "address",
          "name": "account",
          "type": "address"
        }
      ],
      "name": "OwnableUnauthorizedAccount",
      "type": "error"
    },
    {
      "anonymous": false,
      "inputs": [
        {
          "indexed": false,
          "internalType": "uint256",
          "name": "id",
          "type": "uint256"
        },
        {
          "indexed": false,
          "internalType": "address",
          "name": "recipient",
          "type": "address"
        }
      ],
      "name": "GrantApproved",
      "type": "event"
    },
    {
      "anonymous": false,
      "inputs": [
        {
          "indexed": false,
          "internalType": "uint256",
          "name": "id",
          "type": "uint256"
        },
        {
          "indexed": false,
          "internalType": "string",
          "name": "name",
          "type": "string"
        },
        {
          "indexed": false,
          "internalType": "uint256",
          "name": "amount",
          "type": "uint256"
        }
      ],
      "name": "GrantCreated",
      "type": "event"
    },
    {
      "anonymous": false,
      "inputs": [
        {
          "indexed": true,
          "internalType": "address",
          "name": "previousOwner",
          "type": "address"
        },
        {
          "indexed": true,
          "internalType": "address",
          "name": "newOwner",
          "type": "address"
        }
      ],
      "name": "OwnershipTransferred",
      "type": "event"
    },
    {
      "inputs": [
        {
          "internalType": "uint256",
          "name": "_id",
          "type": "uint256"
        },
        {
          "internalType": "address",
          "name": "_student",
          "type": "address"
        }
      ],
      "name": "applyForGrant",
      "outputs": [],
      "stateMutability": "nonpayable",
      "type": "function"
    },
    {
      "inputs": [
        {
          "internalType": "uint256",
          "name": "_id",
          "type": "uint256"
        }
      ],
      "name": "approveGrant",
      "outputs": [],
      "stateMutability": "nonpayable",
      "type": "function"
    },
    {
      "inputs": [
        {
          "internalType": "string",
          "name": "_name",
          "type": "string"
        },
        {
          "internalType": "uint256",
          "name": "_amount",
          "type": "uint256"
        }
      ],
      "name": "createGrant",
      "outputs": [],
      "stateMutability": "nonpayable",
      "type": "function"
    },
    {
      "inputs": [],
      "name": "grantCount",
      "outputs": [
        {
          "internalType": "uint256",
          "name": "",
          "type": "uint256"
        }
      ],
      "stateMutability": "view",
      "type": "function"
    },
    {
      "inputs": [
        {
          "internalType": "uint256",
          "name": "",
          "type": "uint256"
        }
      ],
      "name": "grants",
      "outputs": [
        {
          "internalType": "string",
          "name": "name",
          "type": "string"
        },
        {
          "internalType": "address",
          "name": "recipient",
          "type": "address"
        },
        {
          "internalType": "uint256",
          "name": "amount",
          "type": "uint256"
        },
        {
          "internalType": "bool",
          "name": "approved",
          "type": "bool"
        }
      ],
      "stateMutability": "view",
      "type": "function"
    },
    {
      "inputs": [],
      "name": "owner",
      "outputs": [
        {
          "internalType": "address",
          "name": "",
          "type": "address"
        }
      ],
      "stateMutability": "view",
      "type": "function"
    },
    {
      "inputs": [],
      "name": "renounceOwnership",
      "outputs": [],
      "stateMutability": "nonpayable",
      "type": "function"
    },
    {
      "inputs": [
        {
          "internalType": "address",
          "name": "newOwner",
          "type": "address"
        }
      ],
      "name": "transferOwnership",
      "outputs": [],
      "stateMutability": "nonpayable",
      "type": "function"
    },
    {
      "stateMutability": "payable",
      "type": "receive"
    }
  ],
  "bytecode": "0x60806040523480156200001157600080fd5b50604051620015df380380620015df8339818101604052810190620000379190620001f4565b80600073ffffffffffffffffffffffffffffffffffffffff168173ffffffffffffffffffffffffffffffffffffffff1603620000ad5760006040517f1e4fbdf7000000000000000000000000000000000000000000000000000000008152600401620000a4919062000237565b60405180910390fd5b620000be81620000c660201b60201c565b505062000254565b60008060009054906101000a900473ffffffffffffffffffffffffffffffffffffffff169050816000806101000a81548173ffffffffffffffffffffffffffffffffffffffff021916908373ffffffffffffffffffffffffffffffffffffffff1602179055508173ffffffffffffffffffffffffffffffffffffffff168173ffffffffffffffffffffffffffffffffffffffff167f8be0079c531659141344cd1fd0a4f28419497f9722a3daafe3b4186f6b6457e060405160405180910390a35050565b600080fd5b600073ffffffffffffffffffffffffffffffffffffffff82169050919050565b6000620001bc826200018f565b9050919050565b620001ce81620001af565b8114620001da57600080fd5b50565b600081519050620001ee81620001c3565b92915050565b6000602082840312156200020d576200020c6200018a565b5b60006200021d84828501620001dd565b91505092915050565b6200023181620001af565b82525050565b60006020820190506200024e600083018462000226565b92915050565b61137b80620002646000396000f3fe60806040526004361061007f5760003560e01c80638da5cb5b1161004e5780638da5cb5b14610134578063a1cd6df61461015f578063cab4267214610188578063f2fde38b146101b357610086565b80630c0debea1461008b5780632fbd04a2146100cb57806348bd0db1146100f4578063715018a61461011d57610086565b3661008657005b600080fd5b34801561009757600080fd5b506100b260048036038101906100ad9190610a05565b6101dc565b6040516100c29493929190610b2d565b60405180910390f35b3480156100d757600080fd5b506100f260048036038101906100ed9190610ba5565b6102c1565b005b34801561010057600080fd5b5061011b60048036038101906101169190610a05565b610420565b005b34801561012957600080fd5b50610132610664565b005b34801561014057600080fd5b50610149610678565b6040516101569190610be5565b60405180910390f35b34801561016b57600080fd5b5061018660048036038101906101819190610d35565b6106a1565b005b34801561019457600080fd5b5061019d6107dc565b6040516101aa9190610d91565b60405180910390f35b3480156101bf57600080fd5b506101da60048036038101906101d59190610dac565b6107e2565b005b60016020528060005260406000206000915090508060000180546101ff90610e08565b80601f016020809104026020016040519081016040528092919081815260200182805461022b90610e08565b80156102785780601f1061024d57610100808354040283529160200191610278565b820191906000526020600020905b81548152906001019060200180831161025b57829003601f168201915b5050505050908060010160009054906101000a900473ffffffffffffffffffffffffffffffffffffffff16908060020154908060030160009054906101000a900460ff16905084565b6102c9610868565b6000600160008481526020019081526020016000206002015411610322576040517f08c379a000000000000000000000000000000000000000000000000000000000815260040161031990610e85565b60405180910390fd5b600073ffffffffffffffffffffffffffffffffffffffff166001600084815260200190815260200160002060010160009054906101000a900473ffffffffffffffffffffffffffffffffffffffff1673ffffffffffffffffffffffffffffffffffffffff16146103c7576040517f08c379a00000000000000000000000000000000000000000000000000000000081526004016103be90610ef1565b60405180910390fd5b806001600084815260200190815260200160002060010160006101000a81548173ffffffffffffffffffffffffffffffffffffffff021916908373ffffffffffffffffffffffffffffffffffffffff1602179055505050565b610428610868565b600073ffffffffffffffffffffffffffffffffffffffff166001600083815260200190815260200160002060010160009054906101000a900473ffffffffffffffffffffffffffffffffffffffff1673ffffffffffffffffffffffffffffffffffffffff16036104cd576040517f08c379a00000000000000000000000000000000000000000000000000000000081526004016104c490610f5d565b60405180910390fd5b6001600082815260200190815260200160002060030160009054906101000a900460ff1615610531576040517f08c379a000000000000000000000000000000000000000000000000000000000815260040161052890610fc9565b60405180910390fd5b600180600083815260200190815260200160002060030160006101000a81548160ff0219169083151502179055506001600082815260200190815260200160002060010160009054906101000a900473ffffffffffffffffffffffffffffffffffffffff1673ffffffffffffffffffffffffffffffffffffffff166108fc60016000848152602001908152602001600020600201549081150290604051600060405180830381858888f193505050501580156105f1573d6000803e3d6000fd5b507f746fdec97b57342b94481bb537dfa8eb9b5e3dbe533bf1a2f994a716c3e0805b816001600084815260200190815260200160002060010160009054906101000a900473ffffffffffffffffffffffffffffffffffffffff16604051610659929190610fe9565b60405180910390a150565b61066c610868565b61067660006108ef565b565b60008060009054906101000a900473ffffffffffffffffffffffffffffffffffffffff16905090565b6106a9610868565b600260008154809291906106bc90611041565b91905055506040518060800160405280838152602001600073ffffffffffffffffffffffffffffffffffffffff1681526020018281526020016000151581525060016000600254815260200190815260200160002060008201518160000190816107269190611235565b5060208201518160010160006101000a81548173ffffffffffffffffffffffffffffffffffffffff021916908373ffffffffffffffffffffffffffffffffffffffff1602179055506040820151816002015560608201518160030160006101000a81548160ff0219169083151502179055509050507f484abff5dd0675392986cb4be9616ca0861d7dc0ca79c8744a2fadbfc79279ab60025483836040516107d093929190611307565b60405180910390a15050565b60025481565b6107ea610868565b600073ffffffffffffffffffffffffffffffffffffffff168173ffffffffffffffffffffffffffffffffffffffff160361085c5760006040517f1e4fbdf70000000000000000000000000000000000000000000000000000000081526004016108539190610be5565b60405180910390fd5b610865816108ef565b50565b6108706109b3565b73ffffffffffffffffffffffffffffffffffffffff1661088e610678565b73ffffffffffffffffffffffffffffffffffffffff16146108ed576108b16109b3565b6040517f118cdaa70000000000000000000000000000000000000000000000000000000081526004016108e49190610be5565b60405180910390fd5b565b60008060009054906101000a900473ffffffffffffffffffffffffffffffffffffffff169050816000806101000a81548173ffffffffffffffffffffffffffffffffffffffff021916908373ffffffffffffffffffffffffffffffffffffffff1602179055508173ffffffffffffffffffffffffffffffffffffffff168173ffffffffffffffffffffffffffffffffffffffff167f8be0079c531659141344cd1fd0a4f28419497f9722a3daafe3b4186f6b6457e060405160405180910390a35050565b600033905090565b6000604051905090565b600080fd5b600080fd5b6000819050919050565b6109e2816109cf565b81146109ed57600080fd5b50565b6000813590506109ff816109d9565b92915050565b600060208284031215610a1b57610a1a6109c5565b5b6000610a29848285016109f0565b91505092915050565b600081519050919050565b600082825260208201905092915050565b60005b83811015610a6c578082015181840152602081019050610a51565b60008484015250505050565b6000601f19601f8301169050919050565b6000610a9482610a32565b610a9e8185610a3d565b9350610aae818560208601610a4e565b610ab781610a78565b840191505092915050565b600073ffffffffffffffffffffffffffffffffffffffff82169050919050565b6000610aed82610ac2565b9050919050565b610afd81610ae2565b82525050565b610b0c816109cf565b82525050565b60008115159050919050565b610b2781610b12565b82525050565b60006080820190508181036000830152610b478187610a89565b9050610b566020830186610af4565b610b636040830185610b03565b610b706060830184610b1e565b95945050505050565b610b8281610ae2565b8114610b8d57600080fd5b50565b600081359050610b9f81610b79565b92915050565b60008060408385031215610bbc57610bbb6109c5565b5b6000610bca858286016109f0565b9250506020610bdb85828601610b90565b9150509250929050565b6000602082019050610bfa6000830184610af4565b92915050565b600080fd5b600080fd5b7f4e487b7100000000000000000000000000000000000000000000000000000000600052604160045260246000fd5b610c4282610a78565b810181811067ffffffffffffffff82111715610c6157610c60610c0a565b5b80604052505050565b6000610c746109bb565b9050610c808282610c39565b919050565b600067ffffffffffffffff821115610ca057610c9f610c0a565b5b610ca982610a78565b9050602081019050919050565b82818337600083830152505050565b6000610cd8610cd384610c85565b610c6a565b905082815260208101848484011115610cf457610cf3610c05565b5b610cff848285610cb6565b509392505050565b600082601f830112610d1c57610d1b610c00565b5b8135610d2c848260208601610cc5565b91505092915050565b60008060408385031215610d4c57610d4b6109c5565b5b600083013567ffffffffffffffff811115610d6a57610d696109ca565b5b610d7685828601610d07565b9250506020610d87858286016109f0565b9150509250929050565b6000602082019050610da66000830184610b03565b92915050565b600060208284031215610dc257610dc16109c5565b5b6000610dd084828501610b90565b91505092915050565b7f4e487b7100000000000000000000000000000000000000000000000000000000600052602260045260246000fd5b60006002820490506001821680610e2057607f821691505b602082108103610e3357610e32610dd9565b5b50919050565b7f4772616e7420646f6573206e6f74206578697374000000000000000000000000600082015250565b6000610e6f601483610a3d565b9150610e7a82610e39565b602082019050919050565b60006020820190508181036000830152610e9e81610e62565b9050919050565b7f416c72656164792061737369676e656400000000000000000000000000000000600082015250565b6000610edb601083610a3d565b9150610ee682610ea5565b602082019050919050565b60006020820190508181036000830152610f0a81610ece565b9050919050565b7f4e6f20726563697069656e742061737369676e65640000000000000000000000600082015250565b6000610f47601583610a3d565b9150610f5282610f11565b602082019050919050565b60006020820190508181036000830152610f7681610f3a565b9050919050565b7f416c726561647920617070726f76656400000000000000000000000000000000600082015250565b6000610fb3601083610a3d565b9150610fbe82610f7d565b602082019050919050565b60006020820190508181036000830152610fe281610fa6565b9050919050565b6000604082019050610ffe6000830185610b03565b61100b6020830184610af4565b9392505050565b7f4e487b7100000000000000000000000000000000000000000000000000000000600052601160045260246000fd5b600061104c826109cf565b91507fffffffffffffffffffffffffffffffffffffffffffffffffffffffffffffffff820361107e5761107d611012565b5b600182019050919050565b60008190508160005260206000209050919050565b60006020601f8301049050919050565b600082821b905092915050565b6000600883026110eb7fffffffffffffffffffffffffffffffffffffffffffffffffffffffffffffffff826110ae565b6110f586836110ae565b95508019841693508086168417925050509392505050565b6000819050919050565b600061113261112d611128846109cf565b61110d565b6109cf565b9050919050565b6000819050919050565b61114c83611117565b61116061115882611139565b8484546110bb565b825550505050565b600090565b611175611168565b611180818484611143565b505050565b5b818110156111a45761119960008261116d565b600181019050611186565b5050565b601f8211156111e9576111ba81611089565b6111c38461109e565b810160208510156111d2578190505b6111e66111de8561109e565b830182611185565b50505b505050565b600082821c905092915050565b600061120c600019846008026111ee565b1980831691505092915050565b600061122583836111fb565b9150826002028217905092915050565b61123e82610a32565b67ffffffffffffffff81111561125757611256610c0a565b5b6112618254610e08565b61126c8282856111a8565b600060209050601f83116001811461129f576000841561128d578287015190505b6112978582611219565b8655506112ff565b601f1984166112ad86611089565b60005b828110156112d5578489015182556001820191506020850194506020810190506112b0565b868310156112f257848901516112ee601f8916826111fb565b8355505b6001600288020188555050505b505050505050565b600060608201905061131c6000830186610b03565b818103602083015261132e8185610a89565b905061133d6040830184610b03565b94935050505056fea264697066735822122055213436b40c6d85beb21aa25c75e2eda9f81cfacbb0c076c5d14abbe2283c2364736f6c63430008140033",
  "linkReferences": {},
  "deployedLinkReferences": {}
}