{
  "_format": "hh-sol-artifact-1",
  "contractName": "StudentLoan",
  "sourceName": "contracts/StudentLoan.sol",
  "abi": [
    {
      "inputs": [],
      "stateMutability": "nonpayable",
      "type": "constructor"
    },
    {
      "anonymous": false,
      "inputs": [
        {
          "indexed": false,
          "internalType": "uint256",
          "name": "id",
          "type": "uint256"
        },
        {
          "indexed": false,
          "internalType": "address",
          "name": "borrower",
          "type": "address"
        }
      ],
      "name": "LoanRepaid",
      "type": "event"
    },
    {
      "anonymous": false,
      "inputs": [
        {
          "indexed": false,
          "internalType": "uint256",
          "name": "id",
          "type": "uint256"
        },
        {
          "indexed": false,
          "internalType": "address",
          "name": "borrower",
          "type": "address"
        },
        {
          "indexed": false,
          "internalType": "uint256",
          "name": "amount",
          "type": "uint256"
        }
      ],
      "name": "LoanRequested",
      "type": "event"
    },
    {
      "inputs": [],
      "name": "loanCount",
      "outputs": [
        {
          "internalType": "uint256",
          "name": "",
          "type": "uint256"
        }
      ],
      "stateMutability": "view",
      "type": "function"
    },
    {
      "inputs": [
        {
          "internalType": "uint256",
          "name": "",
          "type": "uint256"
        }
      ],
      "name": "loans",
      "outputs": [
        {
          "internalType": "uint256",
          "name": "id",
          "type": "uint256"
        },
        {
          "internalType": "address",
          "name": "borrower",
          "type": "address"
        },
        {
          "internalType": "uint256",
          "name": "amount",
          "type": "uint256"
        },
        {
          "internalType": "uint256",
          "name": "interest",
          "type": "uint256"
        },
        {
          "internalType": "uint256",
          "name": "duration",
          "type": "uint256"
        },
        {
          "internalType": "uint256",
          "name": "startTime",
          "type": "uint256"
        },
        {
          "internalType": "bool",
          "name": "repaid",
          "type": "bool"
        }
      ],
      "stateMutability": "view",
      "type": "function"
    },
    {
      "inputs": [],
      "name": "owner",
      "outputs": [
        {
          "internalType": "address",
          "name": "",
          "type": "address"
        }
      ],
      "stateMutability": "view",
      "type": "function"
    },
    {
      "inputs": [
        {
          "internalType": "uint256",
          "name": "_loanId",
          "type": "uint256"
        }
      ],
      "name": "repayLoan",
      "outputs": [],
      "stateMutability": "payable",
      "type": "function"
    },
    {
      "inputs": [
        {
          "internalType": "uint256",
          "name": "_amount",
          "type": "uint256"
        },
        {
          "internalType": "uint256",
          "name": "_interest",
          "type": "uint256"
        },
        {
          "internalType": "uint256",
          "name": "_duration",
          "type": "uint256"
        }
      ],
      "name": "requestLoan",
      "outputs": [],
      "stateMutability": "nonpayable",
      "type": "function"
    }
  ],
  "bytecode": "0x608060405234801561001057600080fd5b5033600260006101000a81548173ffffffffffffffffffffffffffffffffffffffff021916908373ffffffffffffffffffffffffffffffffffffffff16021790555061092a806100616000396000f3fe60806040526004361061004a5760003560e01c80638da5cb5b1461004f578063ab7b1c891461007a578063ce63094d14610096578063e1ec3c68146100c1578063edadbbfe14610104575b600080fd5b34801561005b57600080fd5b5061006461012d565b60405161007191906104d4565b60405180910390f35b610094600480360381019061008f919061052a565b610153565b005b3480156100a257600080fd5b506100ab6102c7565b6040516100b89190610566565b60405180910390f35b3480156100cd57600080fd5b506100e860048036038101906100e3919061052a565b6102cd565b6040516100fb979695949392919061059c565b60405180910390f35b34801561011057600080fd5b5061012b6004803603810190610126919061060b565b61033c565b005b600260009054906101000a900473ffffffffffffffffffffffffffffffffffffffff1681565b60006001600083815260200190815260200160002090508060010160009054906101000a900473ffffffffffffffffffffffffffffffffffffffff1673ffffffffffffffffffffffffffffffffffffffff163373ffffffffffffffffffffffffffffffffffffffff16146101fc576040517f08c379a00000000000000000000000000000000000000000000000000000000081526004016101f3906106bb565b60405180910390fd5b606481600301548260020154610212919061070a565b61021c919061077b565b816002015461022b91906107ac565b34101561026d576040517f08c379a00000000000000000000000000000000000000000000000000000000081526004016102649061082c565b60405180910390fd5b60018160060160006101000a81548160ff0219169083151502179055507fe69d7686a8bc68278b8c5419579f91716b3ef2ac2fac0d8cf80b8011f8f458a482336040516102bb92919061084c565b60405180910390a15050565b60005481565b60016020528060005260406000206000915090508060000154908060010160009054906101000a900473ffffffffffffffffffffffffffffffffffffffff16908060020154908060030154908060040154908060050154908060060160009054906101000a900460ff16905087565b60008081548092919061034e90610875565b91905055506040518060e0016040528060005481526020013373ffffffffffffffffffffffffffffffffffffffff1681526020018481526020018381526020018281526020014281526020016000151581525060016000805481526020019081526020016000206000820151816000015560208201518160010160006101000a81548173ffffffffffffffffffffffffffffffffffffffff021916908373ffffffffffffffffffffffffffffffffffffffff16021790555060408201518160020155606082015181600301556080820151816004015560a0820151816005015560c08201518160060160006101000a81548160ff0219169083151502179055509050507f97e04be2fd6414727fe9d0400464568f4384aa8b06264119565ca8f6cc2a4b7a6000543385604051610486939291906108bd565b60405180910390a1505050565b600073ffffffffffffffffffffffffffffffffffffffff82169050919050565b60006104be82610493565b9050919050565b6104ce816104b3565b82525050565b60006020820190506104e960008301846104c5565b92915050565b600080fd5b6000819050919050565b610507816104f4565b811461051257600080fd5b50565b600081359050610524816104fe565b92915050565b6000602082840312156105405761053f6104ef565b5b600061054e84828501610515565b91505092915050565b610560816104f4565b82525050565b600060208201905061057b6000830184610557565b92915050565b60008115159050919050565b61059681610581565b82525050565b600060e0820190506105b1600083018a610557565b6105be60208301896104c5565b6105cb6040830188610557565b6105d86060830187610557565b6105e56080830186610557565b6105f260a0830185610557565b6105ff60c083018461058d565b98975050505050505050565b600080600060608486031215610624576106236104ef565b5b600061063286828701610515565b935050602061064386828701610515565b925050604061065486828701610515565b9150509250925092565b600082825260208201905092915050565b7f4e6f7420796f7572206c6f616e00000000000000000000000000000000000000600082015250565b60006106a5600d8361065e565b91506106b08261066f565b602082019050919050565b600060208201905081810360008301526106d481610698565b9050919050565b7f4e487b7100000000000000000000000000000000000000000000000000000000600052601160045260246000fd5b6000610715826104f4565b9150610720836104f4565b925082820261072e816104f4565b91508282048414831517610745576107446106db565b5b5092915050565b7f4e487b7100000000000000000000000000000000000000000000000000000000600052601260045260246000fd5b6000610786826104f4565b9150610791836104f4565b9250826107a1576107a061074c565b5b828204905092915050565b60006107b7826104f4565b91506107c2836104f4565b92508282019050808211156107da576107d96106db565b5b92915050565b7f496e73756666696369656e7420616d6f756e7400000000000000000000000000600082015250565b600061081660138361065e565b9150610821826107e0565b602082019050919050565b6000602082019050818103600083015261084581610809565b9050919050565b60006040820190506108616000830185610557565b61086e60208301846104c5565b9392505050565b6000610880826104f4565b91507fffffffffffffffffffffffffffffffffffffffffffffffffffffffffffffffff82036108b2576108b16106db565b5b600182019050919050565b60006060820190506108d26000830186610557565b6108df60208301856104c5565b6108ec6040830184610557565b94935050505056fea26469706673582212201ecfe455b4cec3227d84ede78dcb24987d00b4df11caa4b3fbc970f148467f2764736f6c63430008140033",
  "linkReferences": {},
  "deployedLinkReferences": {}
}