{
  "_format": "hh-sol-artifact-1",
  "contractName": "Scholarship",
  "sourceName": "contracts/Scholarship.sol",
  "abi": [
    {
      "inputs": [
        {
          "internalType": "address",
          "name": "initialOwner",
          "type": "address"
        }
      ],
      "stateMutability": "nonpayable",
      "type": "constructor"
    },
    {
      "inputs": [
        {
          "internalType": "address",
          "name": "owner",
          "type": "address"
        }
      ],
      "name": "OwnableInvalidOwner",
      "type": "error"
    },
    {
      "inputs": [
        {
          "internalType": "address",
          "name": "account",
          "type": "address"
        }
      ],
      "name": "OwnableUnauthorizedAccount",
      "type": "error"
    },
    {
      "anonymous": false,
      "inputs": [
        {
          "indexed": true,
          "internalType": "address",
          "name": "previousOwner",
          "type": "address"
        },
        {
          "indexed": true,
          "internalType": "address",
          "name": "newOwner",
          "type": "address"
        }
      ],
      "name": "OwnershipTransferred",
      "type": "event"
    },
    {
      "anonymous": false,
      "inputs": [
        {
          "indexed": false,
          "internalType": "uint256",
          "name": "id",
          "type": "uint256"
        },
        {
          "indexed": false,
          "internalType": "string",
          "name": "name",
          "type": "string"
        },
        {
          "indexed": false,
          "internalType": "uint256",
          "name": "amount",
          "type": "uint256"
        }
      ],
      "name": "ScholarshipCreated",
      "type": "event"
    },
    {
      "anonymous": false,
      "inputs": [
        {
          "indexed": false,
          "internalType": "uint256",
          "name": "id",
          "type": "uint256"
        },
        {
          "indexed": false,
          "internalType": "address",
          "name": "recipient",
          "type": "address"
        }
      ],
      "name": "ScholarshipDisbursed",
      "type": "event"
    },
    {
      "anonymous": false,
      "inputs": [
        {
          "indexed": true,
          "internalType": "address",
          "name": "user",
          "type": "address"
        },
        {
          "indexed": false,
          "internalType": "enum Scholarship.Role",
          "name": "role",
          "type": "uint8"
        }
      ],
      "name": "UserRoleAssigned",
      "type": "event"
    },
    {
      "inputs": [
        {
          "internalType": "uint256",
          "name": "_id",
          "type": "uint256"
        }
      ],
      "name": "applyForScholarship",
      "outputs": [],
      "stateMutability": "nonpayable",
      "type": "function"
    },
    {
      "inputs": [
        {
          "internalType": "string",
          "name": "_name",
          "type": "string"
        },
        {
          "internalType": "uint256",
          "name": "_amount",
          "type": "uint256"
        }
      ],
      "name": "createScholarship",
      "outputs": [],
      "stateMutability": "nonpayable",
      "type": "function"
    },
    {
      "inputs": [
        {
          "internalType": "uint256",
          "name": "_id",
          "type": "uint256"
        }
      ],
      "name": "disburseScholarship",
      "outputs": [],
      "stateMutability": "nonpayable",
      "type": "function"
    },
    {
      "inputs": [
        {
          "internalType": "address",
          "name": "user",
          "type": "address"
        }
      ],
      "name": "getUserRole",
      "outputs": [
        {
          "internalType": "enum Scholarship.Role",
          "name": "",
          "type": "uint8"
        }
      ],
      "stateMutability": "view",
      "type": "function"
    },
    {
      "inputs": [],
      "name": "owner",
      "outputs": [
        {
          "internalType": "address",
          "name": "",
          "type": "address"
        }
      ],
      "stateMutability": "view",
      "type": "function"
    },
    {
      "inputs": [],
      "name": "renounceOwnership",
      "outputs": [],
      "stateMutability": "nonpayable",
      "type": "function"
    },
    {
      "inputs": [],
      "name": "scholarshipCount",
      "outputs": [
        {
          "internalType": "uint256",
          "name": "",
          "type": "uint256"
        }
      ],
      "stateMutability": "view",
      "type": "function"
    },
    {
      "inputs": [
        {
          "internalType": "uint256",
          "name": "",
          "type": "uint256"
        }
      ],
      "name": "scholarships",
      "outputs": [
        {
          "internalType": "string",
          "name": "name",
          "type": "string"
        },
        {
          "internalType": "address",
          "name": "recipient",
          "type": "address"
        },
        {
          "internalType": "uint256",
          "name": "amount",
          "type": "uint256"
        },
        {
          "internalType": "bool",
          "name": "disbursed",
          "type": "bool"
        }
      ],
      "stateMutability": "view",
      "type": "function"
    },
    {
      "inputs": [
        {
          "internalType": "address",
          "name": "user",
          "type": "address"
        },
        {
          "internalType": "enum Scholarship.Role",
          "name": "role",
          "type": "uint8"
        }
      ],
      "name": "setUserRole",
      "outputs": [],
      "stateMutability": "nonpayable",
      "type": "function"
    },
    {
      "inputs": [
        {
          "internalType": "address",
          "name": "newOwner",
          "type": "address"
        }
      ],
      "name": "transferOwnership",
      "outputs": [],
      "stateMutability": "nonpayable",
      "type": "function"
    },
    {
      "inputs": [
        {
          "internalType": "address",
          "name": "",
          "type": "address"
        }
      ],
      "name": "userRoles",
      "outputs": [
        {
          "internalType": "enum Scholarship.Role",
          "name": "",
          "type": "uint8"
        }
      ],
      "stateMutability": "view",
      "type": "function"
    },
    {
      "stateMutability": "payable",
      "type": "receive"
    }
  ],
  "bytecode": "0x60806040523480156200001157600080fd5b5060405162001bcf38038062001bcf83398181016040528101906200003791906200025f565b80600073ffffffffffffffffffffffffffffffffffffffff168173ffffffffffffffffffffffffffffffffffffffff1603620000ad5760006040517f1e4fbdf7000000000000000000000000000000000000000000000000000000008152600401620000a49190620002a2565b60405180910390fd5b620000be816200013160201b60201c565b506003600160008373ffffffffffffffffffffffffffffffffffffffff1673ffffffffffffffffffffffffffffffffffffffff16815260200190815260200160002060006101000a81548160ff02191690836003811115620001255762000124620002bf565b5b021790555050620002ee565b60008060009054906101000a900473ffffffffffffffffffffffffffffffffffffffff169050816000806101000a81548173ffffffffffffffffffffffffffffffffffffffff021916908373ffffffffffffffffffffffffffffffffffffffff1602179055508173ffffffffffffffffffffffffffffffffffffffff168173ffffffffffffffffffffffffffffffffffffffff167f8be0079c531659141344cd1fd0a4f28419497f9722a3daafe3b4186f6b6457e060405160405180910390a35050565b600080fd5b600073ffffffffffffffffffffffffffffffffffffffff82169050919050565b60006200022782620001fa565b9050919050565b62000239816200021a565b81146200024557600080fd5b50565b60008151905062000259816200022e565b92915050565b600060208284031215620002785762000277620001f5565b5b6000620002888482850162000248565b91505092915050565b6200029c816200021a565b82525050565b6000602082019050620002b9600083018462000291565b92915050565b7f4e487b7100000000000000000000000000000000000000000000000000000000600052602160045260246000fd5b6118d180620002fe6000396000f3fe6080604052600436106100a05760003560e01c806374d5e1001161006457806374d5e100146101925780637acdaf65146101cf5780638da5cb5b146101f8578063910451fa14610223578063bb906f091461024c578063f2fde38b14610277576100a7565b806303a69611146100ac57806327820851146100d557806339dc58c61461011257806350bac3e914610152578063715018a61461017b576100a7565b366100a757005b600080fd5b3480156100b857600080fd5b506100d360048036038101906100ce9190610df3565b6102a0565b005b3480156100e157600080fd5b506100fc60048036038101906100f79190610e33565b610361565b6040516101099190610ed7565b60405180910390f35b34801561011e57600080fd5b5061013960048036038101906101349190610f28565b6103b7565b604051610149949392919061101e565b60405180910390f35b34801561015e57600080fd5b5061017960048036038101906101749190610f28565b61049c565b005b34801561018757600080fd5b5061019061078b565b005b34801561019e57600080fd5b506101b960048036038101906101b49190610e33565b61079f565b6040516101c69190610ed7565b60405180910390f35b3480156101db57600080fd5b506101f660048036038101906101f1919061119f565b6107bf565b005b34801561020457600080fd5b5061020d6109a4565b60405161021a91906111fb565b60405180910390f35b34801561022f57600080fd5b5061024a60048036038101906102459190610f28565b6109cd565b005b34801561025857600080fd5b50610261610b7d565b60405161026e9190611216565b60405180910390f35b34801561028357600080fd5b5061029e60048036038101906102999190610e33565b610b83565b005b6102a8610c09565b80600160008473ffffffffffffffffffffffffffffffffffffffff1673ffffffffffffffffffffffffffffffffffffffff16815260200190815260200160002060006101000a81548160ff0219169083600381111561030a57610309610e60565b5b02179055508173ffffffffffffffffffffffffffffffffffffffff167f73dac2552c7f6613fbf8503e9838d639ff54bcd7e99524dd8600321b2fb6d77c826040516103559190610ed7565b60405180910390a25050565b6000600160008373ffffffffffffffffffffffffffffffffffffffff1673ffffffffffffffffffffffffffffffffffffffff16815260200190815260200160002060009054906101000a900460ff169050919050565b60026020528060005260406000206000915090508060000180546103da90611260565b80601f016020809104026020016040519081016040528092919081815260200182805461040690611260565b80156104535780601f1061042857610100808354040283529160200191610453565b820191906000526020600020905b81548152906001019060200180831161043657829003601f168201915b5050505050908060010160009054906101000a900473ffffffffffffffffffffffffffffffffffffffff16908060020154908060030160009054906101000a900460ff16905084565b6003808111156104af576104ae610e60565b5b600160003373ffffffffffffffffffffffffffffffffffffffff1673ffffffffffffffffffffffffffffffffffffffff16815260200190815260200160002060009054906101000a900460ff16600381111561050e5761050d610e60565b5b1461054e576040517f08c379a0000000000000000000000000000000000000000000000000000000008152600401610545906112dd565b60405180910390fd5b600073ffffffffffffffffffffffffffffffffffffffff166002600083815260200190815260200160002060010160009054906101000a900473ffffffffffffffffffffffffffffffffffffffff1673ffffffffffffffffffffffffffffffffffffffff16036105f3576040517f08c379a00000000000000000000000000000000000000000000000000000000081526004016105ea90611349565b60405180910390fd5b6002600082815260200190815260200160002060030160009054906101000a900460ff1615610657576040517f08c379a000000000000000000000000000000000000000000000000000000000815260040161064e906113b5565b60405180910390fd5b6002600082815260200190815260200160002060010160009054906101000a900473ffffffffffffffffffffffffffffffffffffffff1673ffffffffffffffffffffffffffffffffffffffff166108fc60026000848152602001908152602001600020600201549081150290604051600060405180830381858888f193505050501580156106e9573d6000803e3d6000fd5b5060016002600083815260200190815260200160002060030160006101000a81548160ff0219169083151502179055507f6b318963ea49ab2a9fc55b72ed963b66c6142c01c5d695681ce9ed7fc663ade9816002600084815260200190815260200160002060010160009054906101000a900473ffffffffffffffffffffffffffffffffffffffff166040516107809291906113d5565b60405180910390a150565b610793610c09565b61079d6000610c90565b565b60016020528060005260406000206000915054906101000a900460ff1681565b6003808111156107d2576107d1610e60565b5b600160003373ffffffffffffffffffffffffffffffffffffffff1673ffffffffffffffffffffffffffffffffffffffff16815260200190815260200160002060009054906101000a900460ff16600381111561083157610830610e60565b5b14610871576040517f08c379a000000000000000000000000000000000000000000000000000000000815260040161086890611470565b60405180910390fd5b60036000815480929190610884906114bf565b91905055506040518060800160405280838152602001600073ffffffffffffffffffffffffffffffffffffffff1681526020018281526020016000151581525060026000600354815260200190815260200160002060008201518160000190816108ee91906116b3565b5060208201518160010160006101000a81548173ffffffffffffffffffffffffffffffffffffffff021916908373ffffffffffffffffffffffffffffffffffffffff1602179055506040820151816002015560608201518160030160006101000a81548160ff0219169083151502179055509050507fcd613ed337e0507220dae4ee9a4abc53280c43016d259a8ea66bf5e8bfe57b87600354838360405161099893929190611785565b60405180910390a15050565b60008060009054906101000a900473ffffffffffffffffffffffffffffffffffffffff16905090565b600160038111156109e1576109e0610e60565b5b600160003373ffffffffffffffffffffffffffffffffffffffff1673ffffffffffffffffffffffffffffffffffffffff16815260200190815260200160002060009054906101000a900460ff166003811115610a4057610a3f610e60565b5b14610a80576040517f08c379a0000000000000000000000000000000000000000000000000000000008152600401610a779061180f565b60405180910390fd5b600073ffffffffffffffffffffffffffffffffffffffff166002600083815260200190815260200160002060010160009054906101000a900473ffffffffffffffffffffffffffffffffffffffff1673ffffffffffffffffffffffffffffffffffffffff1614610b25576040517f08c379a0000000000000000000000000000000000000000000000000000000008152600401610b1c9061187b565b60405180910390fd5b336002600083815260200190815260200160002060010160006101000a81548173ffffffffffffffffffffffffffffffffffffffff021916908373ffffffffffffffffffffffffffffffffffffffff16021790555050565b60035481565b610b8b610c09565b600073ffffffffffffffffffffffffffffffffffffffff168173ffffffffffffffffffffffffffffffffffffffff1603610bfd5760006040517f1e4fbdf7000000000000000000000000000000000000000000000000000000008152600401610bf491906111fb565b60405180910390fd5b610c0681610c90565b50565b610c11610d54565b73ffffffffffffffffffffffffffffffffffffffff16610c2f6109a4565b73ffffffffffffffffffffffffffffffffffffffff1614610c8e57610c52610d54565b6040517f118cdaa7000000000000000000000000000000000000000000000000000000008152600401610c8591906111fb565b60405180910390fd5b565b60008060009054906101000a900473ffffffffffffffffffffffffffffffffffffffff169050816000806101000a81548173ffffffffffffffffffffffffffffffffffffffff021916908373ffffffffffffffffffffffffffffffffffffffff1602179055508173ffffffffffffffffffffffffffffffffffffffff168173ffffffffffffffffffffffffffffffffffffffff167f8be0079c531659141344cd1fd0a4f28419497f9722a3daafe3b4186f6b6457e060405160405180910390a35050565b600033905090565b6000604051905090565b600080fd5b600080fd5b600073ffffffffffffffffffffffffffffffffffffffff82169050919050565b6000610d9b82610d70565b9050919050565b610dab81610d90565b8114610db657600080fd5b50565b600081359050610dc881610da2565b92915050565b60048110610ddb57600080fd5b50565b600081359050610ded81610dce565b92915050565b60008060408385031215610e0a57610e09610d66565b5b6000610e1885828601610db9565b9250506020610e2985828601610dde565b9150509250929050565b600060208284031215610e4957610e48610d66565b5b6000610e5784828501610db9565b91505092915050565b7f4e487b7100000000000000000000000000000000000000000000000000000000600052602160045260246000fd5b60048110610ea057610e9f610e60565b5b50565b6000819050610eb182610e8f565b919050565b6000610ec182610ea3565b9050919050565b610ed181610eb6565b82525050565b6000602082019050610eec6000830184610ec8565b92915050565b6000819050919050565b610f0581610ef2565b8114610f1057600080fd5b50565b600081359050610f2281610efc565b92915050565b600060208284031215610f3e57610f3d610d66565b5b6000610f4c84828501610f13565b91505092915050565b600081519050919050565b600082825260208201905092915050565b60005b83811015610f8f578082015181840152602081019050610f74565b60008484015250505050565b6000601f19601f8301169050919050565b6000610fb782610f55565b610fc18185610f60565b9350610fd1818560208601610f71565b610fda81610f9b565b840191505092915050565b610fee81610d90565b82525050565b610ffd81610ef2565b82525050565b60008115159050919050565b61101881611003565b82525050565b600060808201905081810360008301526110388187610fac565b90506110476020830186610fe5565b6110546040830185610ff4565b611061606083018461100f565b95945050505050565b600080fd5b600080fd5b7f4e487b7100000000000000000000000000000000000000000000000000000000600052604160045260246000fd5b6110ac82610f9b565b810181811067ffffffffffffffff821117156110cb576110ca611074565b5b80604052505050565b60006110de610d5c565b90506110ea82826110a3565b919050565b600067ffffffffffffffff82111561110a57611109611074565b5b61111382610f9b565b9050602081019050919050565b82818337600083830152505050565b600061114261113d846110ef565b6110d4565b90508281526020810184848401111561115e5761115d61106f565b5b611169848285611120565b509392505050565b600082601f8301126111865761118561106a565b5b813561119684826020860161112f565b91505092915050565b600080604083850312156111b6576111b5610d66565b5b600083013567ffffffffffffffff8111156111d4576111d3610d6b565b5b6111e085828601611171565b92505060206111f185828601610f13565b9150509250929050565b60006020820190506112106000830184610fe5565b92915050565b600060208201905061122b6000830184610ff4565b92915050565b7f4e487b7100000000000000000000000000000000000000000000000000000000600052602260045260246000fd5b6000600282049050600182168061127857607f821691505b60208210810361128b5761128a611231565b5b50919050565b7f4f6e6c792061646d696e732063616e2064697362757273650000000000000000600082015250565b60006112c7601883610f60565b91506112d282611291565b602082019050919050565b600060208201905081810360008301526112f6816112ba565b9050919050565b7f4e6f20726563697069656e742061737369676e65640000000000000000000000600082015250565b6000611333601583610f60565b915061133e826112fd565b602082019050919050565b6000602082019050818103600083015261136281611326565b9050919050565b7f416c726561647920646973627572736564000000000000000000000000000000600082015250565b600061139f601183610f60565b91506113aa82611369565b602082019050919050565b600060208201905081810360008301526113ce81611392565b9050919050565b60006040820190506113ea6000830185610ff4565b6113f76020830184610fe5565b9392505050565b7f4f6e6c792061646d696e732063616e20637265617465207363686f6c6172736860008201527f6970730000000000000000000000000000000000000000000000000000000000602082015250565b600061145a602383610f60565b9150611465826113fe565b604082019050919050565b600060208201905081810360008301526114898161144d565b9050919050565b7f4e487b7100000000000000000000000000000000000000000000000000000000600052601160045260246000fd5b60006114ca82610ef2565b91507fffffffffffffffffffffffffffffffffffffffffffffffffffffffffffffffff82036114fc576114fb611490565b5b600182019050919050565b60008190508160005260206000209050919050565b60006020601f8301049050919050565b600082821b905092915050565b6000600883026115697fffffffffffffffffffffffffffffffffffffffffffffffffffffffffffffffff8261152c565b611573868361152c565b95508019841693508086168417925050509392505050565b6000819050919050565b60006115b06115ab6115a684610ef2565b61158b565b610ef2565b9050919050565b6000819050919050565b6115ca83611595565b6115de6115d6826115b7565b848454611539565b825550505050565b600090565b6115f36115e6565b6115fe8184846115c1565b505050565b5b81811015611622576116176000826115eb565b600181019050611604565b5050565b601f8211156116675761163881611507565b6116418461151c565b81016020851015611650578190505b61166461165c8561151c565b830182611603565b50505b505050565b600082821c905092915050565b600061168a6000198460080261166c565b1980831691505092915050565b60006116a38383611679565b9150826002028217905092915050565b6116bc82610f55565b67ffffffffffffffff8111156116d5576116d4611074565b5b6116df8254611260565b6116ea828285611626565b600060209050601f83116001811461171d576000841561170b578287015190505b6117158582611697565b86555061177d565b601f19841661172b86611507565b60005b828110156117535784890151825560018201915060208501945060208101905061172e565b86831015611770578489015161176c601f891682611679565b8355505b6001600288020188555050505b505050505050565b600060608201905061179a6000830186610ff4565b81810360208301526117ac8185610fac565b90506117bb6040830184610ff4565b949350505050565b7f4f6e6c792073747564656e74732063616e206170706c79000000000000000000600082015250565b60006117f9601783610f60565b9150611804826117c3565b602082019050919050565b60006020820190508181036000830152611828816117ec565b9050919050565b7f416c72656164792061737369676e656400000000000000000000000000000000600082015250565b6000611865601083610f60565b91506118708261182f565b602082019050919050565b6000602082019050818103600083015261189481611858565b905091905056fea26469706673582212203aaafcde8fb53a537669f25a8284ea40069c4ad6ff3cd659e43af578c040630a64736f6c63430008140033",
  "linkReferences": {},
  "deployedLinkReferences": {}
}