{"contracts/StudentLoan.sol":{"StudentLoan":{"abi":[{"inputs":[],"stateMutability":"nonpayable","type":"constructor"},{"anonymous":false,"inputs":[{"indexed":false,"internalType":"uint256","name":"id","type":"uint256"},{"indexed":false,"internalType":"address","name":"borrower","type":"address"}],"name":"LoanRepaid","type":"event"},{"anonymous":false,"inputs":[{"indexed":false,"internalType":"uint256","name":"id","type":"uint256"},{"indexed":false,"internalType":"address","name":"borrower","type":"address"},{"indexed":false,"internalType":"uint256","name":"amount","type":"uint256"}],"name":"LoanRequested","type":"event"},{"inputs":[],"name":"loanCount","outputs":[{"internalType":"uint256","name":"","type":"uint256"}],"stateMutability":"view","type":"function"},{"inputs":[{"internalType":"uint256","name":"","type":"uint256"}],"name":"loans","outputs":[{"internalType":"uint256","name":"id","type":"uint256"},{"internalType":"address","name":"borrower","type":"address"},{"internalType":"uint256","name":"amount","type":"uint256"},{"internalType":"uint256","name":"interest","type":"uint256"},{"internalType":"uint256","name":"duration","type":"uint256"},{"internalType":"uint256","name":"startTime","type":"uint256"},{"internalType":"bool","name":"repaid","type":"bool"}],"stateMutability":"view","type":"function"},{"inputs":[],"name":"owner","outputs":[{"internalType":"address","name":"","type":"address"}],"stateMutability":"view","type":"function"},{"inputs":[{"internalType":"uint256","name":"_loanId","type":"uint256"}],"name":"repayLoan","outputs":[],"stateMutability":"payable","type":"function"},{"inputs":[{"internalType":"uint256","name":"_amount","type":"uint256"},{"internalType":"uint256","name":"_interest","type":"uint256"},{"internalType":"uint256","name":"_duration","type":"uint256"}],"name":"requestLoan","outputs":[],"stateMutability":"nonpayable","type":"function"}],"evm":{"bytecode":{"linkReferences":{},"object":"608060405234801561001057600080fd5b5033600260006101000a81548173ffffffffffffffffffffffffffffffffffffffff021916908373ffffffffffffffffffffffffffffffffffffffff16021790555061092a806100616000396000f3fe60806040526004361061004a5760003560e01c80638da5cb5b1461004f578063ab7b1c891461007a578063ce63094d14610096578063e1ec3c68146100c1578063edadbbfe14610104575b600080fd5b34801561005b57600080fd5b5061006461012d565b60405161007191906104d4565b60405180910390f35b610094600480360381019061008f919061052a565b610153565b005b3480156100a257600080fd5b506100ab6102c7565b6040516100b89190610566565b60405180910390f35b3480156100cd57600080fd5b506100e860048036038101906100e3919061052a565b6102cd565b6040516100fb979695949392919061059c565b60405180910390f35b34801561011057600080fd5b5061012b6004803603810190610126919061060b565b61033c565b005b600260009054906101000a900473ffffffffffffffffffffffffffffffffffffffff1681565b60006001600083815260200190815260200160002090508060010160009054906101000a900473ffffffffffffffffffffffffffffffffffffffff1673ffffffffffffffffffffffffffffffffffffffff163373ffffffffffffffffffffffffffffffffffffffff16146101fc576040517f08c379a00000000000000000000000000000000000000000000000000000000081526004016101f3906106bb565b60405180910390fd5b606481600301548260020154610212919061070a565b61021c919061077b565b816002015461022b91906107ac565b34101561026d576040517f08c379a00000000000000000000000000000000000000000000000000000000081526004016102649061082c565b60405180910390fd5b60018160060160006101000a81548160ff0219169083151502179055507fe69d7686a8bc68278b8c5419579f91716b3ef2ac2fac0d8cf80b8011f8f458a482336040516102bb92919061084c565b60405180910390a15050565b60005481565b60016020528060005260406000206000915090508060000154908060010160009054906101000a900473ffffffffffffffffffffffffffffffffffffffff16908060020154908060030154908060040154908060050154908060060160009054906101000a900460ff16905087565b60008081548092919061034e90610875565b91905055506040518060e0016040528060005481526020013373ffffffffffffffffffffffffffffffffffffffff1681526020018481526020018381526020018281526020014281526020016000151581525060016000805481526020019081526020016000206000820151816000015560208201518160010160006101000a81548173ffffffffffffffffffffffffffffffffffffffff021916908373ffffffffffffffffffffffffffffffffffffffff16021790555060408201518160020155606082015181600301556080820151816004015560a0820151816005015560c08201518160060160006101000a81548160ff0219169083151502179055509050507f97e04be2fd6414727fe9d0400464568f4384aa8b06264119565ca8f6cc2a4b7a6000543385604051610486939291906108bd565b60405180910390a1505050565b600073ffffffffffffffffffffffffffffffffffffffff82169050919050565b60006104be82610493565b9050919050565b6104ce816104b3565b82525050565b60006020820190506104e960008301846104c5565b92915050565b600080fd5b6000819050919050565b610507816104f4565b811461051257600080fd5b50565b600081359050610524816104fe565b92915050565b6000602082840312156105405761053f6104ef565b5b600061054e84828501610515565b91505092915050565b610560816104f4565b82525050565b600060208201905061057b6000830184610557565b92915050565b60008115159050919050565b61059681610581565b82525050565b600060e0820190506105b1600083018a610557565b6105be60208301896104c5565b6105cb6040830188610557565b6105d86060830187610557565b6105e56080830186610557565b6105f260a0830185610557565b6105ff60c083018461058d565b98975050505050505050565b600080600060608486031215610624576106236104ef565b5b600061063286828701610515565b935050602061064386828701610515565b925050604061065486828701610515565b9150509250925092565b600082825260208201905092915050565b7f4e6f7420796f7572206c6f616e00000000000000000000000000000000000000600082015250565b60006106a5600d8361065e565b91506106b08261066f565b602082019050919050565b600060208201905081810360008301526106d481610698565b9050919050565b7f4e487b7100000000000000000000000000000000000000000000000000000000600052601160045260246000fd5b6000610715826104f4565b9150610720836104f4565b925082820261072e816104f4565b91508282048414831517610745576107446106db565b5b5092915050565b7f4e487b7100000000000000000000000000000000000000000000000000000000600052601260045260246000fd5b6000610786826104f4565b9150610791836104f4565b9250826107a1576107a061074c565b5b828204905092915050565b60006107b7826104f4565b91506107c2836104f4565b92508282019050808211156107da576107d96106db565b5b92915050565b7f496e73756666696369656e7420616d6f756e7400000000000000000000000000600082015250565b600061081660138361065e565b9150610821826107e0565b602082019050919050565b6000602082019050818103600083015261084581610809565b9050919050565b60006040820190506108616000830185610557565b61086e60208301846104c5565b9392505050565b6000610880826104f4565b91507fffffffffffffffffffffffffffffffffffffffffffffffffffffffffffffffff82036108b2576108b16106db565b5b600182019050919050565b60006060820190506108d26000830186610557565b6108df60208301856104c5565b6108ec6040830184610557565b94935050505056fea26469706673582212201ecfe455b4cec3227d84ede78dcb24987d00b4df11caa4b3fbc970f148467f2764736f6c63430008140033","opcodes":"PUSH1 0x80 PUSH1 0x40 MSTORE CALLVALUE DUP1 ISZERO PUSH2 0x10 JUMPI PUSH1 0x0 DUP1 REVERT JUMPDEST POP CALLER PUSH1 0x2 PUSH1 0x0 PUSH2 0x100 EXP DUP2 SLOAD DUP2 PUSH20 0xFFFFFFFFFFFFFFFFFFFFFFFFFFFFFFFFFFFFFFFF MUL NOT AND SWAP1 DUP4 PUSH20 0xFFFFFFFFFFFFFFFFFFFFFFFFFFFFFFFFFFFFFFFF AND MUL OR SWAP1 SSTORE POP PUSH2 0x92A DUP1 PUSH2 0x61 PUSH1 0x0 CODECOPY PUSH1 0x0 RETURN INVALID PUSH1 0x80 PUSH1 0x40 MSTORE PUSH1 0x4 CALLDATASIZE LT PUSH2 0x4A JUMPI PUSH1 0x0 CALLDATALOAD PUSH1 0xE0 SHR DUP1 PUSH4 0x8DA5CB5B EQ PUSH2 0x4F JUMPI DUP1 PUSH4 0xAB7B1C89 EQ PUSH2 0x7A JUMPI DUP1 PUSH4 0xCE63094D EQ PUSH2 0x96 JUMPI DUP1 PUSH4 0xE1EC3C68 EQ PUSH2 0xC1 JUMPI DUP1 PUSH4 0xEDADBBFE EQ PUSH2 0x104 JUMPI JUMPDEST PUSH1 0x0 DUP1 REVERT JUMPDEST CALLVALUE DUP1 ISZERO PUSH2 0x5B JUMPI PUSH1 0x0 DUP1 REVERT JUMPDEST POP PUSH2 0x64 PUSH2 0x12D JUMP JUMPDEST PUSH1 0x40 MLOAD PUSH2 0x71 SWAP2 SWAP1 PUSH2 0x4D4 JUMP JUMPDEST PUSH1 0x40 MLOAD DUP1 SWAP2 SUB SWAP1 RETURN JUMPDEST PUSH2 0x94 PUSH1 0x4 DUP1 CALLDATASIZE SUB DUP2 ADD SWAP1 PUSH2 0x8F SWAP2 SWAP1 PUSH2 0x52A JUMP JUMPDEST PUSH2 0x153 JUMP JUMPDEST STOP JUMPDEST CALLVALUE DUP1 ISZERO PUSH2 0xA2 JUMPI PUSH1 0x0 DUP1 REVERT JUMPDEST POP PUSH2 0xAB PUSH2 0x2C7 JUMP JUMPDEST PUSH1 0x40 MLOAD PUSH2 0xB8 SWAP2 SWAP1 PUSH2 0x566 JUMP JUMPDEST PUSH1 0x40 MLOAD DUP1 SWAP2 SUB SWAP1 RETURN JUMPDEST CALLVALUE DUP1 ISZERO PUSH2 0xCD JUMPI PUSH1 0x0 DUP1 REVERT JUMPDEST POP PUSH2 0xE8 PUSH1 0x4 DUP1 CALLDATASIZE SUB DUP2 ADD SWAP1 PUSH2 0xE3 SWAP2 SWAP1 PUSH2 0x52A JUMP JUMPDEST PUSH2 0x2CD JUMP JUMPDEST PUSH1 0x40 MLOAD PUSH2 0xFB SWAP8 SWAP7 SWAP6 SWAP5 SWAP4 SWAP3 SWAP2 SWAP1 PUSH2 0x59C JUMP JUMPDEST PUSH1 0x40 MLOAD DUP1 SWAP2 SUB SWAP1 RETURN JUMPDEST CALLVALUE DUP1 ISZERO PUSH2 0x110 JUMPI PUSH1 0x0 DUP1 REVERT JUMPDEST POP PUSH2 0x12B PUSH1 0x4 DUP1 CALLDATASIZE SUB DUP2 ADD SWAP1 PUSH2 0x126 SWAP2 SWAP1 PUSH2 0x60B JUMP JUMPDEST PUSH2 0x33C JUMP JUMPDEST STOP JUMPDEST PUSH1 0x2 PUSH1 0x0 SWAP1 SLOAD SWAP1 PUSH2 0x100 EXP SWAP1 DIV PUSH20 0xFFFFFFFFFFFFFFFFFFFFFFFFFFFFFFFFFFFFFFFF AND DUP2 JUMP JUMPDEST PUSH1 0x0 PUSH1 0x1 PUSH1 0x0 DUP4 DUP2 MSTORE PUSH1 0x20 ADD SWAP1 DUP2 MSTORE PUSH1 0x20 ADD PUSH1 0x0 KECCAK256 SWAP1 POP DUP1 PUSH1 0x1 ADD PUSH1 0x0 SWAP1 SLOAD SWAP1 PUSH2 0x100 EXP SWAP1 DIV PUSH20 0xFFFFFFFFFFFFFFFFFFFFFFFFFFFFFFFFFFFFFFFF AND PUSH20 0xFFFFFFFFFFFFFFFFFFFFFFFFFFFFFFFFFFFFFFFF AND CALLER PUSH20 0xFFFFFFFFFFFFFFFFFFFFFFFFFFFFFFFFFFFFFFFF AND EQ PUSH2 0x1FC JUMPI PUSH1 0x40 MLOAD PUSH32 0x8C379A000000000000000000000000000000000000000000000000000000000 DUP2 MSTORE PUSH1 0x4 ADD PUSH2 0x1F3 SWAP1 PUSH2 0x6BB JUMP JUMPDEST PUSH1 0x40 MLOAD DUP1 SWAP2 SUB SWAP1 REVERT JUMPDEST PUSH1 0x64 DUP2 PUSH1 0x3 ADD SLOAD DUP3 PUSH1 0x2 ADD SLOAD PUSH2 0x212 SWAP2 SWAP1 PUSH2 0x70A JUMP JUMPDEST PUSH2 0x21C SWAP2 SWAP1 PUSH2 0x77B JUMP JUMPDEST DUP2 PUSH1 0x2 ADD SLOAD PUSH2 0x22B SWAP2 SWAP1 PUSH2 0x7AC JUMP JUMPDEST CALLVALUE LT ISZERO PUSH2 0x26D JUMPI PUSH1 0x40 MLOAD PUSH32 0x8C379A000000000000000000000000000000000000000000000000000000000 DUP2 MSTORE PUSH1 0x4 ADD PUSH2 0x264 SWAP1 PUSH2 0x82C JUMP JUMPDEST PUSH1 0x40 MLOAD DUP1 SWAP2 SUB SWAP1 REVERT JUMPDEST PUSH1 0x1 DUP2 PUSH1 0x6 ADD PUSH1 0x0 PUSH2 0x100 EXP DUP2 SLOAD DUP2 PUSH1 0xFF MUL NOT AND SWAP1 DUP4 ISZERO ISZERO MUL OR SWAP1 SSTORE POP PUSH32 0xE69D7686A8BC68278B8C5419579F91716B3EF2AC2FAC0D8CF80B8011F8F458A4 DUP3 CALLER PUSH1 0x40 MLOAD PUSH2 0x2BB SWAP3 SWAP2 SWAP1 PUSH2 0x84C JUMP JUMPDEST PUSH1 0x40 MLOAD DUP1 SWAP2 SUB SWAP1 LOG1 POP POP JUMP JUMPDEST PUSH1 0x0 SLOAD DUP2 JUMP JUMPDEST PUSH1 0x1 PUSH1 0x20 MSTORE DUP1 PUSH1 0x0 MSTORE PUSH1 0x40 PUSH1 0x0 KECCAK256 PUSH1 0x0 SWAP2 POP SWAP1 POP DUP1 PUSH1 0x0 ADD SLOAD SWAP1 DUP1 PUSH1 0x1 ADD PUSH1 0x0 SWAP1 SLOAD SWAP1 PUSH2 0x100 EXP SWAP1 DIV PUSH20 0xFFFFFFFFFFFFFFFFFFFFFFFFFFFFFFFFFFFFFFFF AND SWAP1 DUP1 PUSH1 0x2 ADD SLOAD SWAP1 DUP1 PUSH1 0x3 ADD SLOAD SWAP1 DUP1 PUSH1 0x4 ADD SLOAD SWAP1 DUP1 PUSH1 0x5 ADD SLOAD SWAP1 DUP1 PUSH1 0x6 ADD PUSH1 0x0 SWAP1 SLOAD SWAP1 PUSH2 0x100 EXP SWAP1 DIV PUSH1 0xFF AND SWAP1 POP DUP8 JUMP JUMPDEST PUSH1 0x0 DUP1 DUP2 SLOAD DUP1 SWAP3 SWAP2 SWAP1 PUSH2 0x34E SWAP1 PUSH2 0x875 JUMP JUMPDEST SWAP2 SWAP1 POP SSTORE POP PUSH1 0x40 MLOAD DUP1 PUSH1 0xE0 ADD PUSH1 0x40 MSTORE DUP1 PUSH1 0x0 SLOAD DUP2 MSTORE PUSH1 0x20 ADD CALLER PUSH20 0xFFFFFFFFFFFFFFFFFFFFFFFFFFFFFFFFFFFFFFFF AND DUP2 MSTORE PUSH1 0x20 ADD DUP5 DUP2 MSTORE PUSH1 0x20 ADD DUP4 DUP2 MSTORE PUSH1 0x20 ADD DUP3 DUP2 MSTORE PUSH1 0x20 ADD TIMESTAMP DUP2 MSTORE PUSH1 0x20 ADD PUSH1 0x0 ISZERO ISZERO DUP2 MSTORE POP PUSH1 0x1 PUSH1 0x0 DUP1 SLOAD DUP2 MSTORE PUSH1 0x20 ADD SWAP1 DUP2 MSTORE PUSH1 0x20 ADD PUSH1 0x0 KECCAK256 PUSH1 0x0 DUP3 ADD MLOAD DUP2 PUSH1 0x0 ADD SSTORE PUSH1 0x20 DUP3 ADD MLOAD DUP2 PUSH1 0x1 ADD PUSH1 0x0 PUSH2 0x100 EXP DUP2 SLOAD DUP2 PUSH20 0xFFFFFFFFFFFFFFFFFFFFFFFFFFFFFFFFFFFFFFFF MUL NOT AND SWAP1 DUP4 PUSH20 0xFFFFFFFFFFFFFFFFFFFFFFFFFFFFFFFFFFFFFFFF AND MUL OR SWAP1 SSTORE POP PUSH1 0x40 DUP3 ADD MLOAD DUP2 PUSH1 0x2 ADD SSTORE PUSH1 0x60 DUP3 ADD MLOAD DUP2 PUSH1 0x3 ADD SSTORE PUSH1 0x80 DUP3 ADD MLOAD DUP2 PUSH1 0x4 ADD SSTORE PUSH1 0xA0 DUP3 ADD MLOAD DUP2 PUSH1 0x5 ADD SSTORE PUSH1 0xC0 DUP3 ADD MLOAD DUP2 PUSH1 0x6 ADD PUSH1 0x0 PUSH2 0x100 EXP DUP2 SLOAD DUP2 PUSH1 0xFF MUL NOT AND SWAP1 DUP4 ISZERO ISZERO MUL OR SWAP1 SSTORE POP SWAP1 POP POP PUSH32 0x97E04BE2FD6414727FE9D0400464568F4384AA8B06264119565CA8F6CC2A4B7A PUSH1 0x0 SLOAD CALLER DUP6 PUSH1 0x40 MLOAD PUSH2 0x486 SWAP4 SWAP3 SWAP2 SWAP1 PUSH2 0x8BD JUMP JUMPDEST PUSH1 0x40 MLOAD DUP1 SWAP2 SUB SWAP1 LOG1 POP POP POP JUMP JUMPDEST PUSH1 0x0 PUSH20 0xFFFFFFFFFFFFFFFFFFFFFFFFFFFFFFFFFFFFFFFF DUP3 AND SWAP1 POP SWAP2 SWAP1 POP JUMP JUMPDEST PUSH1 0x0 PUSH2 0x4BE DUP3 PUSH2 0x493 JUMP JUMPDEST SWAP1 POP SWAP2 SWAP1 POP JUMP JUMPDEST PUSH2 0x4CE DUP2 PUSH2 0x4B3 JUMP JUMPDEST DUP3 MSTORE POP POP JUMP JUMPDEST PUSH1 0x0 PUSH1 0x20 DUP3 ADD SWAP1 POP PUSH2 0x4E9 PUSH1 0x0 DUP4 ADD DUP5 PUSH2 0x4C5 JUMP JUMPDEST SWAP3 SWAP2 POP POP JUMP JUMPDEST PUSH1 0x0 DUP1 REVERT JUMPDEST PUSH1 0x0 DUP2 SWAP1 POP SWAP2 SWAP1 POP JUMP JUMPDEST PUSH2 0x507 DUP2 PUSH2 0x4F4 JUMP JUMPDEST DUP2 EQ PUSH2 0x512 JUMPI PUSH1 0x0 DUP1 REVERT JUMPDEST POP JUMP JUMPDEST PUSH1 0x0 DUP2 CALLDATALOAD SWAP1 POP PUSH2 0x524 DUP2 PUSH2 0x4FE JUMP JUMPDEST SWAP3 SWAP2 POP POP JUMP JUMPDEST PUSH1 0x0 PUSH1 0x20 DUP3 DUP5 SUB SLT ISZERO PUSH2 0x540 JUMPI PUSH2 0x53F PUSH2 0x4EF JUMP JUMPDEST JUMPDEST PUSH1 0x0 PUSH2 0x54E DUP5 DUP3 DUP6 ADD PUSH2 0x515 JUMP JUMPDEST SWAP2 POP POP SWAP3 SWAP2 POP POP JUMP JUMPDEST PUSH2 0x560 DUP2 PUSH2 0x4F4 JUMP JUMPDEST DUP3 MSTORE POP POP JUMP JUMPDEST PUSH1 0x0 PUSH1 0x20 DUP3 ADD SWAP1 POP PUSH2 0x57B PUSH1 0x0 DUP4 ADD DUP5 PUSH2 0x557 JUMP JUMPDEST SWAP3 SWAP2 POP POP JUMP JUMPDEST PUSH1 0x0 DUP2 ISZERO ISZERO SWAP1 POP SWAP2 SWAP1 POP JUMP JUMPDEST PUSH2 0x596 DUP2 PUSH2 0x581 JUMP JUMPDEST DUP3 MSTORE POP POP JUMP JUMPDEST PUSH1 0x0 PUSH1 0xE0 DUP3 ADD SWAP1 POP PUSH2 0x5B1 PUSH1 0x0 DUP4 ADD DUP11 PUSH2 0x557 JUMP JUMPDEST PUSH2 0x5BE PUSH1 0x20 DUP4 ADD DUP10 PUSH2 0x4C5 JUMP JUMPDEST PUSH2 0x5CB PUSH1 0x40 DUP4 ADD DUP9 PUSH2 0x557 JUMP JUMPDEST PUSH2 0x5D8 PUSH1 0x60 DUP4 ADD DUP8 PUSH2 0x557 JUMP JUMPDEST PUSH2 0x5E5 PUSH1 0x80 DUP4 ADD DUP7 PUSH2 0x557 JUMP JUMPDEST PUSH2 0x5F2 PUSH1 0xA0 DUP4 ADD DUP6 PUSH2 0x557 JUMP JUMPDEST PUSH2 0x5FF PUSH1 0xC0 DUP4 ADD DUP5 PUSH2 0x58D JUMP JUMPDEST SWAP9 SWAP8 POP POP POP POP POP POP POP POP JUMP JUMPDEST PUSH1 0x0 DUP1 PUSH1 0x0 PUSH1 0x60 DUP5 DUP7 SUB SLT ISZERO PUSH2 0x624 JUMPI PUSH2 0x623 PUSH2 0x4EF JUMP JUMPDEST JUMPDEST PUSH1 0x0 PUSH2 0x632 DUP7 DUP3 DUP8 ADD PUSH2 0x515 JUMP JUMPDEST SWAP4 POP POP PUSH1 0x20 PUSH2 0x643 DUP7 DUP3 DUP8 ADD PUSH2 0x515 JUMP JUMPDEST SWAP3 POP POP PUSH1 0x40 PUSH2 0x654 DUP7 DUP3 DUP8 ADD PUSH2 0x515 JUMP JUMPDEST SWAP2 POP POP SWAP3 POP SWAP3 POP SWAP3 JUMP JUMPDEST PUSH1 0x0 DUP3 DUP3 MSTORE PUSH1 0x20 DUP3 ADD SWAP1 POP SWAP3 SWAP2 POP POP JUMP JUMPDEST PUSH32 0x4E6F7420796F7572206C6F616E00000000000000000000000000000000000000 PUSH1 0x0 DUP3 ADD MSTORE POP JUMP JUMPDEST PUSH1 0x0 PUSH2 0x6A5 PUSH1 0xD DUP4 PUSH2 0x65E JUMP JUMPDEST SWAP2 POP PUSH2 0x6B0 DUP3 PUSH2 0x66F JUMP JUMPDEST PUSH1 0x20 DUP3 ADD SWAP1 POP SWAP2 SWAP1 POP JUMP JUMPDEST PUSH1 0x0 PUSH1 0x20 DUP3 ADD SWAP1 POP DUP2 DUP2 SUB PUSH1 0x0 DUP4 ADD MSTORE PUSH2 0x6D4 DUP2 PUSH2 0x698 JUMP JUMPDEST SWAP1 POP SWAP2 SWAP1 POP JUMP JUMPDEST PUSH32 0x4E487B7100000000000000000000000000000000000000000000000000000000 PUSH1 0x0 MSTORE PUSH1 0x11 PUSH1 0x4 MSTORE PUSH1 0x24 PUSH1 0x0 REVERT JUMPDEST PUSH1 0x0 PUSH2 0x715 DUP3 PUSH2 0x4F4 JUMP JUMPDEST SWAP2 POP PUSH2 0x720 DUP4 PUSH2 0x4F4 JUMP JUMPDEST SWAP3 POP DUP3 DUP3 MUL PUSH2 0x72E DUP2 PUSH2 0x4F4 JUMP JUMPDEST SWAP2 POP DUP3 DUP3 DIV DUP5 EQ DUP4 ISZERO OR PUSH2 0x745 JUMPI PUSH2 0x744 PUSH2 0x6DB JUMP JUMPDEST JUMPDEST POP SWAP3 SWAP2 POP POP JUMP JUMPDEST PUSH32 0x4E487B7100000000000000000000000000000000000000000000000000000000 PUSH1 0x0 MSTORE PUSH1 0x12 PUSH1 0x4 MSTORE PUSH1 0x24 PUSH1 0x0 REVERT JUMPDEST PUSH1 0x0 PUSH2 0x786 DUP3 PUSH2 0x4F4 JUMP JUMPDEST SWAP2 POP PUSH2 0x791 DUP4 PUSH2 0x4F4 JUMP JUMPDEST SWAP3 POP DUP3 PUSH2 0x7A1 JUMPI PUSH2 0x7A0 PUSH2 0x74C JUMP JUMPDEST JUMPDEST DUP3 DUP3 DIV SWAP1 POP SWAP3 SWAP2 POP POP JUMP JUMPDEST PUSH1 0x0 PUSH2 0x7B7 DUP3 PUSH2 0x4F4 JUMP JUMPDEST SWAP2 POP PUSH2 0x7C2 DUP4 PUSH2 0x4F4 JUMP JUMPDEST SWAP3 POP DUP3 DUP3 ADD SWAP1 POP DUP1 DUP3 GT ISZERO PUSH2 0x7DA JUMPI PUSH2 0x7D9 PUSH2 0x6DB JUMP JUMPDEST JUMPDEST SWAP3 SWAP2 POP POP JUMP JUMPDEST PUSH32 0x496E73756666696369656E7420616D6F756E7400000000000000000000000000 PUSH1 0x0 DUP3 ADD MSTORE POP JUMP JUMPDEST PUSH1 0x0 PUSH2 0x816 PUSH1 0x13 DUP4 PUSH2 0x65E JUMP JUMPDEST SWAP2 POP PUSH2 0x821 DUP3 PUSH2 0x7E0 JUMP JUMPDEST PUSH1 0x20 DUP3 ADD SWAP1 POP SWAP2 SWAP1 POP JUMP JUMPDEST PUSH1 0x0 PUSH1 0x20 DUP3 ADD SWAP1 POP DUP2 DUP2 SUB PUSH1 0x0 DUP4 ADD MSTORE PUSH2 0x845 DUP2 PUSH2 0x809 JUMP JUMPDEST SWAP1 POP SWAP2 SWAP1 POP JUMP JUMPDEST PUSH1 0x0 PUSH1 0x40 DUP3 ADD SWAP1 POP PUSH2 0x861 PUSH1 0x0 DUP4 ADD DUP6 PUSH2 0x557 JUMP JUMPDEST PUSH2 0x86E PUSH1 0x20 DUP4 ADD DUP5 PUSH2 0x4C5 JUMP JUMPDEST SWAP4 SWAP3 POP POP POP JUMP JUMPDEST PUSH1 0x0 PUSH2 0x880 DUP3 PUSH2 0x4F4 JUMP JUMPDEST SWAP2 POP PUSH32 0xFFFFFFFFFFFFFFFFFFFFFFFFFFFFFFFFFFFFFFFFFFFFFFFFFFFFFFFFFFFFFFFF DUP3 SUB PUSH2 0x8B2 JUMPI PUSH2 0x8B1 PUSH2 0x6DB JUMP JUMPDEST JUMPDEST PUSH1 0x1 DUP3 ADD SWAP1 POP SWAP2 SWAP1 POP JUMP JUMPDEST PUSH1 0x0 PUSH1 0x60 DUP3 ADD SWAP1 POP PUSH2 0x8D2 PUSH1 0x0 DUP4 ADD DUP7 PUSH2 0x557 JUMP JUMPDEST PUSH2 0x8DF PUSH1 0x20 DUP4 ADD DUP6 PUSH2 0x4C5 JUMP JUMPDEST PUSH2 0x8EC PUSH1 0x40 DUP4 ADD DUP5 PUSH2 0x557 JUMP JUMPDEST SWAP5 SWAP4 POP POP POP POP JUMP INVALID LOG2 PUSH5 0x6970667358 0x22 SLT KECCAK256 0x1E 0xCF 0xE4 SSTORE 0xB4 0xCE 0xC3 0x22 PUSH30 0x84EDE78DCB24987D00B4DF11CAA4B3FBC970F148467F2764736F6C634300 ADDMOD EQ STOP CALLER "},"methodIdentifiers":{"loanCount()":"ce63094d","loans(uint256)":"e1ec3c68","owner()":"8da5cb5b","repayLoan(uint256)":"ab7b1c89","requestLoan(uint256,uint256,uint256)":"edadbbfe"}}}}}