{"contracts/Scholarship.sol":{"Scholarship":{"abi":[{"inputs":[{"internalType":"address","name":"initialOwner","type":"address"}],"stateMutability":"nonpayable","type":"constructor"},{"inputs":[{"internalType":"address","name":"owner","type":"address"}],"name":"OwnableInvalidOwner","type":"error"},{"inputs":[{"internalType":"address","name":"account","type":"address"}],"name":"OwnableUnauthorizedAccount","type":"error"},{"anonymous":false,"inputs":[{"indexed":true,"internalType":"address","name":"previousOwner","type":"address"},{"indexed":true,"internalType":"address","name":"newOwner","type":"address"}],"name":"OwnershipTransferred","type":"event"},{"anonymous":false,"inputs":[{"indexed":false,"internalType":"uint256","name":"id","type":"uint256"},{"indexed":false,"internalType":"string","name":"name","type":"string"},{"indexed":false,"internalType":"uint256","name":"amount","type":"uint256"}],"name":"ScholarshipCreated","type":"event"},{"anonymous":false,"inputs":[{"indexed":false,"internalType":"uint256","name":"id","type":"uint256"},{"indexed":false,"internalType":"address","name":"recipient","type":"address"}],"name":"ScholarshipDisbursed","type":"event"},{"inputs":[{"internalType":"uint256","name":"_id","type":"uint256"},{"internalType":"address","name":"_student","type":"address"}],"name":"applyForScholarship","outputs":[],"stateMutability":"nonpayable","type":"function"},{"inputs":[{"internalType":"string","name":"_name","type":"string"},{"internalType":"uint256","name":"_amount","type":"uint256"}],"name":"createScholarship","outputs":[],"stateMutability":"nonpayable","type":"function"},{"inputs":[{"internalType":"uint256","name":"_id","type":"uint256"}],"name":"disburseScholarship","outputs":[],"stateMutability":"nonpayable","type":"function"},{"inputs":[],"name":"owner","outputs":[{"internalType":"address","name":"","type":"address"}],"stateMutability":"view","type":"function"},{"inputs":[],"name":"renounceOwnership","outputs":[],"stateMutability":"nonpayable","type":"function"},{"inputs":[],"name":"scholarshipCount","outputs":[{"internalType":"uint256","name":"","type":"uint256"}],"stateMutability":"view","type":"function"},{"inputs":[{"internalType":"uint256","name":"","type":"uint256"}],"name":"scholarships","outputs":[{"internalType":"string","name":"name","type":"string"},{"internalType":"address","name":"recipient","type":"address"},{"internalType":"uint256","name":"amount","type":"uint256"},{"internalType":"bool","name":"disbursed","type":"bool"}],"stateMutability":"view","type":"function"},{"inputs":[{"internalType":"address","name":"newOwner","type":"address"}],"name":"transferOwnership","outputs":[],"stateMutability":"nonpayable","type":"function"},{"stateMutability":"payable","type":"receive"}],"evm":{"bytecode":{"linkReferences":{},"object":"60806040523480156200001157600080fd5b50604051620015df380380620015df8339818101604052810190620000379190620001f4565b80600073ffffffffffffffffffffffffffffffffffffffff168173ffffffffffffffffffffffffffffffffffffffff1603620000ad5760006040517f1e4fbdf7000000000000000000000000000000000000000000000000000000008152600401620000a4919062000237565b60405180910390fd5b620000be81620000c660201b60201c565b505062000254565b60008060009054906101000a900473ffffffffffffffffffffffffffffffffffffffff169050816000806101000a81548173ffffffffffffffffffffffffffffffffffffffff021916908373ffffffffffffffffffffffffffffffffffffffff1602179055508173ffffffffffffffffffffffffffffffffffffffff168173ffffffffffffffffffffffffffffffffffffffff167f8be0079c531659141344cd1fd0a4f28419497f9722a3daafe3b4186f6b6457e060405160405180910390a35050565b600080fd5b600073ffffffffffffffffffffffffffffffffffffffff82169050919050565b6000620001bc826200018f565b9050919050565b620001ce81620001af565b8114620001da57600080fd5b50565b600081519050620001ee81620001c3565b92915050565b6000602082840312156200020d576200020c6200018a565b5b60006200021d84828501620001dd565b91505092915050565b6200023181620001af565b82525050565b60006020820190506200024e600083018462000226565b92915050565b61137b80620002646000396000f3fe60806040526004361061007f5760003560e01c80637acdaf651161004e5780637acdaf65146101345780638da5cb5b1461015d578063bb906f0914610188578063f2fde38b146101b357610086565b80630e626b5e1461008b57806339dc58c6146100b457806350bac3e9146100f4578063715018a61461011d57610086565b3661008657005b600080fd5b34801561009757600080fd5b506100b260048036038101906100ad9190610a63565b6101dc565b005b3480156100c057600080fd5b506100db60048036038101906100d69190610aa3565b61033b565b6040516100eb9493929190610b99565b60405180910390f35b34801561010057600080fd5b5061011b60048036038101906101169190610aa3565b610420565b005b34801561012957600080fd5b50610132610664565b005b34801561014057600080fd5b5061015b60048036038101906101569190610d1a565b610678565b005b34801561016957600080fd5b506101726107b3565b60405161017f9190610d76565b60405180910390f35b34801561019457600080fd5b5061019d6107dc565b6040516101aa9190610d91565b60405180910390f35b3480156101bf57600080fd5b506101da60048036038101906101d59190610dac565b6107e2565b005b6101e4610868565b600060016000848152602001908152602001600020600201541161023d576040517f08c379a000000000000000000000000000000000000000000000000000000000815260040161023490610e25565b60405180910390fd5b600073ffffffffffffffffffffffffffffffffffffffff166001600084815260200190815260200160002060010160009054906101000a900473ffffffffffffffffffffffffffffffffffffffff1673ffffffffffffffffffffffffffffffffffffffff16146102e2576040517f08c379a00000000000000000000000000000000000000000000000000000000081526004016102d990610e91565b60405180910390fd5b806001600084815260200190815260200160002060010160006101000a81548173ffffffffffffffffffffffffffffffffffffffff021916908373ffffffffffffffffffffffffffffffffffffffff1602179055505050565b600160205280600052604060002060009150905080600001805461035e90610ee0565b80601f016020809104026020016040519081016040528092919081815260200182805461038a90610ee0565b80156103d75780601f106103ac576101008083540402835291602001916103d7565b820191906000526020600020905b8154815290600101906020018083116103ba57829003601f168201915b5050505050908060010160009054906101000a900473ffffffffffffffffffffffffffffffffffffffff16908060020154908060030160009054906101000a900460ff16905084565b610428610868565b600073ffffffffffffffffffffffffffffffffffffffff166001600083815260200190815260200160002060010160009054906101000a900473ffffffffffffffffffffffffffffffffffffffff1673ffffffffffffffffffffffffffffffffffffffff16036104cd576040517f08c379a00000000000000000000000000000000000000000000000000000000081526004016104c490610f5d565b60405180910390fd5b6001600082815260200190815260200160002060030160009054906101000a900460ff1615610531576040517f08c379a000000000000000000000000000000000000000000000000000000000815260040161052890610fc9565b60405180910390fd5b6001600082815260200190815260200160002060010160009054906101000a900473ffffffffffffffffffffffffffffffffffffffff1673ffffffffffffffffffffffffffffffffffffffff166108fc60016000848152602001908152602001600020600201549081150290604051600060405180830381858888f193505050501580156105c3573d6000803e3d6000fd5b50600180600083815260200190815260200160002060030160006101000a81548160ff0219169083151502179055507f6b318963ea49ab2a9fc55b72ed963b66c6142c01c5d695681ce9ed7fc663ade9816001600084815260200190815260200160002060010160009054906101000a900473ffffffffffffffffffffffffffffffffffffffff16604051610659929190610fe9565b60405180910390a150565b61066c610868565b61067660006108ef565b565b610680610868565b6002600081548092919061069390611041565b91905055506040518060800160405280838152602001600073ffffffffffffffffffffffffffffffffffffffff1681526020018281526020016000151581525060016000600254815260200190815260200160002060008201518160000190816106fd9190611235565b5060208201518160010160006101000a81548173ffffffffffffffffffffffffffffffffffffffff021916908373ffffffffffffffffffffffffffffffffffffffff1602179055506040820151816002015560608201518160030160006101000a81548160ff0219169083151502179055509050507fcd613ed337e0507220dae4ee9a4abc53280c43016d259a8ea66bf5e8bfe57b8760025483836040516107a793929190611307565b60405180910390a15050565b60008060009054906101000a900473ffffffffffffffffffffffffffffffffffffffff16905090565b60025481565b6107ea610868565b600073ffffffffffffffffffffffffffffffffffffffff168173ffffffffffffffffffffffffffffffffffffffff160361085c5760006040517f1e4fbdf70000000000000000000000000000000000000000000000000000000081526004016108539190610d76565b60405180910390fd5b610865816108ef565b50565b6108706109b3565b73ffffffffffffffffffffffffffffffffffffffff1661088e6107b3565b73ffffffffffffffffffffffffffffffffffffffff16146108ed576108b16109b3565b6040517f118cdaa70000000000000000000000000000000000000000000000000000000081526004016108e49190610d76565b60405180910390fd5b565b60008060009054906101000a900473ffffffffffffffffffffffffffffffffffffffff169050816000806101000a81548173ffffffffffffffffffffffffffffffffffffffff021916908373ffffffffffffffffffffffffffffffffffffffff1602179055508173ffffffffffffffffffffffffffffffffffffffff168173ffffffffffffffffffffffffffffffffffffffff167f8be0079c531659141344cd1fd0a4f28419497f9722a3daafe3b4186f6b6457e060405160405180910390a35050565b600033905090565b6000604051905090565b600080fd5b600080fd5b6000819050919050565b6109e2816109cf565b81146109ed57600080fd5b50565b6000813590506109ff816109d9565b92915050565b600073ffffffffffffffffffffffffffffffffffffffff82169050919050565b6000610a3082610a05565b9050919050565b610a4081610a25565b8114610a4b57600080fd5b50565b600081359050610a5d81610a37565b92915050565b60008060408385031215610a7a57610a796109c5565b5b6000610a88858286016109f0565b9250506020610a9985828601610a4e565b9150509250929050565b600060208284031215610ab957610ab86109c5565b5b6000610ac7848285016109f0565b91505092915050565b600081519050919050565b600082825260208201905092915050565b60005b83811015610b0a578082015181840152602081019050610aef565b60008484015250505050565b6000601f19601f8301169050919050565b6000610b3282610ad0565b610b3c8185610adb565b9350610b4c818560208601610aec565b610b5581610b16565b840191505092915050565b610b6981610a25565b82525050565b610b78816109cf565b82525050565b60008115159050919050565b610b9381610b7e565b82525050565b60006080820190508181036000830152610bb38187610b27565b9050610bc26020830186610b60565b610bcf6040830185610b6f565b610bdc6060830184610b8a565b95945050505050565b600080fd5b600080fd5b7f4e487b7100000000000000000000000000000000000000000000000000000000600052604160045260246000fd5b610c2782610b16565b810181811067ffffffffffffffff82111715610c4657610c45610bef565b5b80604052505050565b6000610c596109bb565b9050610c658282610c1e565b919050565b600067ffffffffffffffff821115610c8557610c84610bef565b5b610c8e82610b16565b9050602081019050919050565b82818337600083830152505050565b6000610cbd610cb884610c6a565b610c4f565b905082815260208101848484011115610cd957610cd8610bea565b5b610ce4848285610c9b565b509392505050565b600082601f830112610d0157610d00610be5565b5b8135610d11848260208601610caa565b91505092915050565b60008060408385031215610d3157610d306109c5565b5b600083013567ffffffffffffffff811115610d4f57610d4e6109ca565b5b610d5b85828601610cec565b9250506020610d6c858286016109f0565b9150509250929050565b6000602082019050610d8b6000830184610b60565b92915050565b6000602082019050610da66000830184610b6f565b92915050565b600060208284031215610dc257610dc16109c5565b5b6000610dd084828501610a4e565b91505092915050565b7f5363686f6c61727368697020646f6573206e6f74206578697374000000000000600082015250565b6000610e0f601a83610adb565b9150610e1a82610dd9565b602082019050919050565b60006020820190508181036000830152610e3e81610e02565b9050919050565b7f416c72656164792061737369676e656400000000000000000000000000000000600082015250565b6000610e7b601083610adb565b9150610e8682610e45565b602082019050919050565b60006020820190508181036000830152610eaa81610e6e565b9050919050565b7f4e487b7100000000000000000000000000000000000000000000000000000000600052602260045260246000fd5b60006002820490506001821680610ef857607f821691505b602082108103610f0b57610f0a610eb1565b5b50919050565b7f4e6f20726563697069656e742061737369676e65640000000000000000000000600082015250565b6000610f47601583610adb565b9150610f5282610f11565b602082019050919050565b60006020820190508181036000830152610f7681610f3a565b9050919050565b7f416c726561647920646973627572736564000000000000000000000000000000600082015250565b6000610fb3601183610adb565b9150610fbe82610f7d565b602082019050919050565b60006020820190508181036000830152610fe281610fa6565b9050919050565b6000604082019050610ffe6000830185610b6f565b61100b6020830184610b60565b9392505050565b7f4e487b7100000000000000000000000000000000000000000000000000000000600052601160045260246000fd5b600061104c826109cf565b91507fffffffffffffffffffffffffffffffffffffffffffffffffffffffffffffffff820361107e5761107d611012565b5b600182019050919050565b60008190508160005260206000209050919050565b60006020601f8301049050919050565b600082821b905092915050565b6000600883026110eb7fffffffffffffffffffffffffffffffffffffffffffffffffffffffffffffffff826110ae565b6110f586836110ae565b95508019841693508086168417925050509392505050565b6000819050919050565b600061113261112d611128846109cf565b61110d565b6109cf565b9050919050565b6000819050919050565b61114c83611117565b61116061115882611139565b8484546110bb565b825550505050565b600090565b611175611168565b611180818484611143565b505050565b5b818110156111a45761119960008261116d565b600181019050611186565b5050565b601f8211156111e9576111ba81611089565b6111c38461109e565b810160208510156111d2578190505b6111e66111de8561109e565b830182611185565b50505b505050565b600082821c905092915050565b600061120c600019846008026111ee565b1980831691505092915050565b600061122583836111fb565b9150826002028217905092915050565b61123e82610ad0565b67ffffffffffffffff81111561125757611256610bef565b5b6112618254610ee0565b61126c8282856111a8565b600060209050601f83116001811461129f576000841561128d578287015190505b6112978582611219565b8655506112ff565b601f1984166112ad86611089565b60005b828110156112d5578489015182556001820191506020850194506020810190506112b0565b868310156112f257848901516112ee601f8916826111fb565b8355505b6001600288020188555050505b505050505050565b600060608201905061131c6000830186610b6f565b818103602083015261132e8185610b27565b905061133d6040830184610b6f565b94935050505056fea26469706673582212208fc1f7bfb05c91f18d34d07d80d87714c4143358e5ffa719f007837998d0c91e64736f6c63430008140033","opcodes":"PUSH1 0x80 PUSH1 0x40 MSTORE CALLVALUE DUP1 ISZERO PUSH3 0x11 JUMPI PUSH1 0x0 DUP1 REVERT JUMPDEST POP PUSH1 0x40 MLOAD PUSH3 0x15DF CODESIZE SUB DUP1 PUSH3 0x15DF DUP4 CODECOPY DUP2 DUP2 ADD PUSH1 0x40 MSTORE DUP2 ADD SWAP1 PUSH3 0x37 SWAP2 SWAP1 PUSH3 0x1F4 JUMP JUMPDEST DUP1 PUSH1 0x0 PUSH20 0xFFFFFFFFFFFFFFFFFFFFFFFFFFFFFFFFFFFFFFFF AND DUP2 PUSH20 0xFFFFFFFFFFFFFFFFFFFFFFFFFFFFFFFFFFFFFFFF AND SUB PUSH3 0xAD JUMPI PUSH1 0x0 PUSH1 0x40 MLOAD PUSH32 0x1E4FBDF700000000000000000000000000000000000000000000000000000000 DUP2 MSTORE PUSH1 0x4 ADD PUSH3 0xA4 SWAP2 SWAP1 PUSH3 0x237 JUMP JUMPDEST PUSH1 0x40 MLOAD DUP1 SWAP2 SUB SWAP1 REVERT JUMPDEST PUSH3 0xBE DUP2 PUSH3 0xC6 PUSH1 0x20 SHL PUSH1 0x20 SHR JUMP JUMPDEST POP POP PUSH3 0x254 JUMP JUMPDEST PUSH1 0x0 DUP1 PUSH1 0x0 SWAP1 SLOAD SWAP1 PUSH2 0x100 EXP SWAP1 DIV PUSH20 0xFFFFFFFFFFFFFFFFFFFFFFFFFFFFFFFFFFFFFFFF AND SWAP1 POP DUP2 PUSH1 0x0 DUP1 PUSH2 0x100 EXP DUP2 SLOAD DUP2 PUSH20 0xFFFFFFFFFFFFFFFFFFFFFFFFFFFFFFFFFFFFFFFF MUL NOT AND SWAP1 DUP4 PUSH20 0xFFFFFFFFFFFFFFFFFFFFFFFFFFFFFFFFFFFFFFFF AND MUL OR SWAP1 SSTORE POP DUP2 PUSH20 0xFFFFFFFFFFFFFFFFFFFFFFFFFFFFFFFFFFFFFFFF AND DUP2 PUSH20 0xFFFFFFFFFFFFFFFFFFFFFFFFFFFFFFFFFFFFFFFF AND PUSH32 0x8BE0079C531659141344CD1FD0A4F28419497F9722A3DAAFE3B4186F6B6457E0 PUSH1 0x40 MLOAD PUSH1 0x40 MLOAD DUP1 SWAP2 SUB SWAP1 LOG3 POP POP JUMP JUMPDEST PUSH1 0x0 DUP1 REVERT JUMPDEST PUSH1 0x0 PUSH20 0xFFFFFFFFFFFFFFFFFFFFFFFFFFFFFFFFFFFFFFFF DUP3 AND SWAP1 POP SWAP2 SWAP1 POP JUMP JUMPDEST PUSH1 0x0 PUSH3 0x1BC DUP3 PUSH3 0x18F JUMP JUMPDEST SWAP1 POP SWAP2 SWAP1 POP JUMP JUMPDEST PUSH3 0x1CE DUP2 PUSH3 0x1AF JUMP JUMPDEST DUP2 EQ PUSH3 0x1DA JUMPI PUSH1 0x0 DUP1 REVERT JUMPDEST POP JUMP JUMPDEST PUSH1 0x0 DUP2 MLOAD SWAP1 POP PUSH3 0x1EE DUP2 PUSH3 0x1C3 JUMP JUMPDEST SWAP3 SWAP2 POP POP JUMP JUMPDEST PUSH1 0x0 PUSH1 0x20 DUP3 DUP5 SUB SLT ISZERO PUSH3 0x20D JUMPI PUSH3 0x20C PUSH3 0x18A JUMP JUMPDEST JUMPDEST PUSH1 0x0 PUSH3 0x21D DUP5 DUP3 DUP6 ADD PUSH3 0x1DD JUMP JUMPDEST SWAP2 POP POP SWAP3 SWAP2 POP POP JUMP JUMPDEST PUSH3 0x231 DUP2 PUSH3 0x1AF JUMP JUMPDEST DUP3 MSTORE POP POP JUMP JUMPDEST PUSH1 0x0 PUSH1 0x20 DUP3 ADD SWAP1 POP PUSH3 0x24E PUSH1 0x0 DUP4 ADD DUP5 PUSH3 0x226 JUMP JUMPDEST SWAP3 SWAP2 POP POP JUMP JUMPDEST PUSH2 0x137B DUP1 PUSH3 0x264 PUSH1 0x0 CODECOPY PUSH1 0x0 RETURN INVALID PUSH1 0x80 PUSH1 0x40 MSTORE PUSH1 0x4 CALLDATASIZE LT PUSH2 0x7F JUMPI PUSH1 0x0 CALLDATALOAD PUSH1 0xE0 SHR DUP1 PUSH4 0x7ACDAF65 GT PUSH2 0x4E JUMPI DUP1 PUSH4 0x7ACDAF65 EQ PUSH2 0x134 JUMPI DUP1 PUSH4 0x8DA5CB5B EQ PUSH2 0x15D JUMPI DUP1 PUSH4 0xBB906F09 EQ PUSH2 0x188 JUMPI DUP1 PUSH4 0xF2FDE38B EQ PUSH2 0x1B3 JUMPI PUSH2 0x86 JUMP JUMPDEST DUP1 PUSH4 0xE626B5E EQ PUSH2 0x8B JUMPI DUP1 PUSH4 0x39DC58C6 EQ PUSH2 0xB4 JUMPI DUP1 PUSH4 0x50BAC3E9 EQ PUSH2 0xF4 JUMPI DUP1 PUSH4 0x715018A6 EQ PUSH2 0x11D JUMPI PUSH2 0x86 JUMP JUMPDEST CALLDATASIZE PUSH2 0x86 JUMPI STOP JUMPDEST PUSH1 0x0 DUP1 REVERT JUMPDEST CALLVALUE DUP1 ISZERO PUSH2 0x97 JUMPI PUSH1 0x0 DUP1 REVERT JUMPDEST POP PUSH2 0xB2 PUSH1 0x4 DUP1 CALLDATASIZE SUB DUP2 ADD SWAP1 PUSH2 0xAD SWAP2 SWAP1 PUSH2 0xA63 JUMP JUMPDEST PUSH2 0x1DC JUMP JUMPDEST STOP JUMPDEST CALLVALUE DUP1 ISZERO PUSH2 0xC0 JUMPI PUSH1 0x0 DUP1 REVERT JUMPDEST POP PUSH2 0xDB PUSH1 0x4 DUP1 CALLDATASIZE SUB DUP2 ADD SWAP1 PUSH2 0xD6 SWAP2 SWAP1 PUSH2 0xAA3 JUMP JUMPDEST PUSH2 0x33B JUMP JUMPDEST PUSH1 0x40 MLOAD PUSH2 0xEB SWAP5 SWAP4 SWAP3 SWAP2 SWAP1 PUSH2 0xB99 JUMP JUMPDEST PUSH1 0x40 MLOAD DUP1 SWAP2 SUB SWAP1 RETURN JUMPDEST CALLVALUE DUP1 ISZERO PUSH2 0x100 JUMPI PUSH1 0x0 DUP1 REVERT JUMPDEST POP PUSH2 0x11B PUSH1 0x4 DUP1 CALLDATASIZE SUB DUP2 ADD SWAP1 PUSH2 0x116 SWAP2 SWAP1 PUSH2 0xAA3 JUMP JUMPDEST PUSH2 0x420 JUMP JUMPDEST STOP JUMPDEST CALLVALUE DUP1 ISZERO PUSH2 0x129 JUMPI PUSH1 0x0 DUP1 REVERT JUMPDEST POP PUSH2 0x132 PUSH2 0x664 JUMP JUMPDEST STOP JUMPDEST CALLVALUE DUP1 ISZERO PUSH2 0x140 JUMPI PUSH1 0x0 DUP1 REVERT JUMPDEST POP PUSH2 0x15B PUSH1 0x4 DUP1 CALLDATASIZE SUB DUP2 ADD SWAP1 PUSH2 0x156 SWAP2 SWAP1 PUSH2 0xD1A JUMP JUMPDEST PUSH2 0x678 JUMP JUMPDEST STOP JUMPDEST CALLVALUE DUP1 ISZERO PUSH2 0x169 JUMPI PUSH1 0x0 DUP1 REVERT JUMPDEST POP PUSH2 0x172 PUSH2 0x7B3 JUMP JUMPDEST PUSH1 0x40 MLOAD PUSH2 0x17F SWAP2 SWAP1 PUSH2 0xD76 JUMP JUMPDEST PUSH1 0x40 MLOAD DUP1 SWAP2 SUB SWAP1 RETURN JUMPDEST CALLVALUE DUP1 ISZERO PUSH2 0x194 JUMPI PUSH1 0x0 DUP1 REVERT JUMPDEST POP PUSH2 0x19D PUSH2 0x7DC JUMP JUMPDEST PUSH1 0x40 MLOAD PUSH2 0x1AA SWAP2 SWAP1 PUSH2 0xD91 JUMP JUMPDEST PUSH1 0x40 MLOAD DUP1 SWAP2 SUB SWAP1 RETURN JUMPDEST CALLVALUE DUP1 ISZERO PUSH2 0x1BF JUMPI PUSH1 0x0 DUP1 REVERT JUMPDEST POP PUSH2 0x1DA PUSH1 0x4 DUP1 CALLDATASIZE SUB DUP2 ADD SWAP1 PUSH2 0x1D5 SWAP2 SWAP1 PUSH2 0xDAC JUMP JUMPDEST PUSH2 0x7E2 JUMP JUMPDEST STOP JUMPDEST PUSH2 0x1E4 PUSH2 0x868 JUMP JUMPDEST PUSH1 0x0 PUSH1 0x1 PUSH1 0x0 DUP5 DUP2 MSTORE PUSH1 0x20 ADD SWAP1 DUP2 MSTORE PUSH1 0x20 ADD PUSH1 0x0 KECCAK256 PUSH1 0x2 ADD SLOAD GT PUSH2 0x23D JUMPI PUSH1 0x40 MLOAD PUSH32 0x8C379A000000000000000000000000000000000000000000000000000000000 DUP2 MSTORE PUSH1 0x4 ADD PUSH2 0x234 SWAP1 PUSH2 0xE25 JUMP JUMPDEST PUSH1 0x40 MLOAD DUP1 SWAP2 SUB SWAP1 REVERT JUMPDEST PUSH1 0x0 PUSH20 0xFFFFFFFFFFFFFFFFFFFFFFFFFFFFFFFFFFFFFFFF AND PUSH1 0x1 PUSH1 0x0 DUP5 DUP2 MSTORE PUSH1 0x20 ADD SWAP1 DUP2 MSTORE PUSH1 0x20 ADD PUSH1 0x0 KECCAK256 PUSH1 0x1 ADD PUSH1 0x0 SWAP1 SLOAD SWAP1 PUSH2 0x100 EXP SWAP1 DIV PUSH20 0xFFFFFFFFFFFFFFFFFFFFFFFFFFFFFFFFFFFFFFFF AND PUSH20 0xFFFFFFFFFFFFFFFFFFFFFFFFFFFFFFFFFFFFFFFF AND EQ PUSH2 0x2E2 JUMPI PUSH1 0x40 MLOAD PUSH32 0x8C379A000000000000000000000000000000000000000000000000000000000 DUP2 MSTORE PUSH1 0x4 ADD PUSH2 0x2D9 SWAP1 PUSH2 0xE91 JUMP JUMPDEST PUSH1 0x40 MLOAD DUP1 SWAP2 SUB SWAP1 REVERT JUMPDEST DUP1 PUSH1 0x1 PUSH1 0x0 DUP5 DUP2 MSTORE PUSH1 0x20 ADD SWAP1 DUP2 MSTORE PUSH1 0x20 ADD PUSH1 0x0 KECCAK256 PUSH1 0x1 ADD PUSH1 0x0 PUSH2 0x100 EXP DUP2 SLOAD DUP2 PUSH20 0xFFFFFFFFFFFFFFFFFFFFFFFFFFFFFFFFFFFFFFFF MUL NOT AND SWAP1 DUP4 PUSH20 0xFFFFFFFFFFFFFFFFFFFFFFFFFFFFFFFFFFFFFFFF AND MUL OR SWAP1 SSTORE POP POP POP JUMP JUMPDEST PUSH1 0x1 PUSH1 0x20 MSTORE DUP1 PUSH1 0x0 MSTORE PUSH1 0x40 PUSH1 0x0 KECCAK256 PUSH1 0x0 SWAP2 POP SWAP1 POP DUP1 PUSH1 0x0 ADD DUP1 SLOAD PUSH2 0x35E SWAP1 PUSH2 0xEE0 JUMP JUMPDEST DUP1 PUSH1 0x1F ADD PUSH1 0x20 DUP1 SWAP2 DIV MUL PUSH1 0x20 ADD PUSH1 0x40 MLOAD SWAP1 DUP2 ADD PUSH1 0x40 MSTORE DUP1 SWAP3 SWAP2 SWAP1 DUP2 DUP2 MSTORE PUSH1 0x20 ADD DUP3 DUP1 SLOAD PUSH2 0x38A SWAP1 PUSH2 0xEE0 JUMP JUMPDEST DUP1 ISZERO PUSH2 0x3D7 JUMPI DUP1 PUSH1 0x1F LT PUSH2 0x3AC JUMPI PUSH2 0x100 DUP1 DUP4 SLOAD DIV MUL DUP4 MSTORE SWAP2 PUSH1 0x20 ADD SWAP2 PUSH2 0x3D7 JUMP JUMPDEST DUP3 ADD SWAP2 SWAP1 PUSH1 0x0 MSTORE PUSH1 0x20 PUSH1 0x0 KECCAK256 SWAP1 JUMPDEST DUP2 SLOAD DUP2 MSTORE SWAP1 PUSH1 0x1 ADD SWAP1 PUSH1 0x20 ADD DUP1 DUP4 GT PUSH2 0x3BA JUMPI DUP3 SWAP1 SUB PUSH1 0x1F AND DUP3 ADD SWAP2 JUMPDEST POP POP POP POP POP SWAP1 DUP1 PUSH1 0x1 ADD PUSH1 0x0 SWAP1 SLOAD SWAP1 PUSH2 0x100 EXP SWAP1 DIV PUSH20 0xFFFFFFFFFFFFFFFFFFFFFFFFFFFFFFFFFFFFFFFF AND SWAP1 DUP1 PUSH1 0x2 ADD SLOAD SWAP1 DUP1 PUSH1 0x3 ADD PUSH1 0x0 SWAP1 SLOAD SWAP1 PUSH2 0x100 EXP SWAP1 DIV PUSH1 0xFF AND SWAP1 POP DUP5 JUMP JUMPDEST PUSH2 0x428 PUSH2 0x868 JUMP JUMPDEST PUSH1 0x0 PUSH20 0xFFFFFFFFFFFFFFFFFFFFFFFFFFFFFFFFFFFFFFFF AND PUSH1 0x1 PUSH1 0x0 DUP4 DUP2 MSTORE PUSH1 0x20 ADD SWAP1 DUP2 MSTORE PUSH1 0x20 ADD PUSH1 0x0 KECCAK256 PUSH1 0x1 ADD PUSH1 0x0 SWAP1 SLOAD SWAP1 PUSH2 0x100 EXP SWAP1 DIV PUSH20 0xFFFFFFFFFFFFFFFFFFFFFFFFFFFFFFFFFFFFFFFF AND PUSH20 0xFFFFFFFFFFFFFFFFFFFFFFFFFFFFFFFFFFFFFFFF AND SUB PUSH2 0x4CD JUMPI PUSH1 0x40 MLOAD PUSH32 0x8C379A000000000000000000000000000000000000000000000000000000000 DUP2 MSTORE PUSH1 0x4 ADD PUSH2 0x4C4 SWAP1 PUSH2 0xF5D JUMP JUMPDEST PUSH1 0x40 MLOAD DUP1 SWAP2 SUB SWAP1 REVERT JUMPDEST PUSH1 0x1 PUSH1 0x0 DUP3 DUP2 MSTORE PUSH1 0x20 ADD SWAP1 DUP2 MSTORE PUSH1 0x20 ADD PUSH1 0x0 KECCAK256 PUSH1 0x3 ADD PUSH1 0x0 SWAP1 SLOAD SWAP1 PUSH2 0x100 EXP SWAP1 DIV PUSH1 0xFF AND ISZERO PUSH2 0x531 JUMPI PUSH1 0x40 MLOAD PUSH32 0x8C379A000000000000000000000000000000000000000000000000000000000 DUP2 MSTORE PUSH1 0x4 ADD PUSH2 0x528 SWAP1 PUSH2 0xFC9 JUMP JUMPDEST PUSH1 0x40 MLOAD DUP1 SWAP2 SUB SWAP1 REVERT JUMPDEST PUSH1 0x1 PUSH1 0x0 DUP3 DUP2 MSTORE PUSH1 0x20 ADD SWAP1 DUP2 MSTORE PUSH1 0x20 ADD PUSH1 0x0 KECCAK256 PUSH1 0x1 ADD PUSH1 0x0 SWAP1 SLOAD SWAP1 PUSH2 0x100 EXP SWAP1 DIV PUSH20 0xFFFFFFFFFFFFFFFFFFFFFFFFFFFFFFFFFFFFFFFF AND PUSH20 0xFFFFFFFFFFFFFFFFFFFFFFFFFFFFFFFFFFFFFFFF AND PUSH2 0x8FC PUSH1 0x1 PUSH1 0x0 DUP5 DUP2 MSTORE PUSH1 0x20 ADD SWAP1 DUP2 MSTORE PUSH1 0x20 ADD PUSH1 0x0 KECCAK256 PUSH1 0x2 ADD SLOAD SWAP1 DUP2 ISZERO MUL SWAP1 PUSH1 0x40 MLOAD PUSH1 0x0 PUSH1 0x40 MLOAD DUP1 DUP4 SUB DUP2 DUP6 DUP9 DUP9 CALL SWAP4 POP POP POP POP ISZERO DUP1 ISZERO PUSH2 0x5C3 JUMPI RETURNDATASIZE PUSH1 0x0 DUP1 RETURNDATACOPY RETURNDATASIZE PUSH1 0x0 REVERT JUMPDEST POP PUSH1 0x1 DUP1 PUSH1 0x0 DUP4 DUP2 MSTORE PUSH1 0x20 ADD SWAP1 DUP2 MSTORE PUSH1 0x20 ADD PUSH1 0x0 KECCAK256 PUSH1 0x3 ADD PUSH1 0x0 PUSH2 0x100 EXP DUP2 SLOAD DUP2 PUSH1 0xFF MUL NOT AND SWAP1 DUP4 ISZERO ISZERO MUL OR SWAP1 SSTORE POP PUSH32 0x6B318963EA49AB2A9FC55B72ED963B66C6142C01C5D695681CE9ED7FC663ADE9 DUP2 PUSH1 0x1 PUSH1 0x0 DUP5 DUP2 MSTORE PUSH1 0x20 ADD SWAP1 DUP2 MSTORE PUSH1 0x20 ADD PUSH1 0x0 KECCAK256 PUSH1 0x1 ADD PUSH1 0x0 SWAP1 SLOAD SWAP1 PUSH2 0x100 EXP SWAP1 DIV PUSH20 0xFFFFFFFFFFFFFFFFFFFFFFFFFFFFFFFFFFFFFFFF AND PUSH1 0x40 MLOAD PUSH2 0x659 SWAP3 SWAP2 SWAP1 PUSH2 0xFE9 JUMP JUMPDEST PUSH1 0x40 MLOAD DUP1 SWAP2 SUB SWAP1 LOG1 POP JUMP JUMPDEST PUSH2 0x66C PUSH2 0x868 JUMP JUMPDEST PUSH2 0x676 PUSH1 0x0 PUSH2 0x8EF JUMP JUMPDEST JUMP JUMPDEST PUSH2 0x680 PUSH2 0x868 JUMP JUMPDEST PUSH1 0x2 PUSH1 0x0 DUP2 SLOAD DUP1 SWAP3 SWAP2 SWAP1 PUSH2 0x693 SWAP1 PUSH2 0x1041 JUMP JUMPDEST SWAP2 SWAP1 POP SSTORE POP PUSH1 0x40 MLOAD DUP1 PUSH1 0x80 ADD PUSH1 0x40 MSTORE DUP1 DUP4 DUP2 MSTORE PUSH1 0x20 ADD PUSH1 0x0 PUSH20 0xFFFFFFFFFFFFFFFFFFFFFFFFFFFFFFFFFFFFFFFF AND DUP2 MSTORE PUSH1 0x20 ADD DUP3 DUP2 MSTORE PUSH1 0x20 ADD PUSH1 0x0 ISZERO ISZERO DUP2 MSTORE POP PUSH1 0x1 PUSH1 0x0 PUSH1 0x2 SLOAD DUP2 MSTORE PUSH1 0x20 ADD SWAP1 DUP2 MSTORE PUSH1 0x20 ADD PUSH1 0x0 KECCAK256 PUSH1 0x0 DUP3 ADD MLOAD DUP2 PUSH1 0x0 ADD SWAP1 DUP2 PUSH2 0x6FD SWAP2 SWAP1 PUSH2 0x1235 JUMP JUMPDEST POP PUSH1 0x20 DUP3 ADD MLOAD DUP2 PUSH1 0x1 ADD PUSH1 0x0 PUSH2 0x100 EXP DUP2 SLOAD DUP2 PUSH20 0xFFFFFFFFFFFFFFFFFFFFFFFFFFFFFFFFFFFFFFFF MUL NOT AND SWAP1 DUP4 PUSH20 0xFFFFFFFFFFFFFFFFFFFFFFFFFFFFFFFFFFFFFFFF AND MUL OR SWAP1 SSTORE POP PUSH1 0x40 DUP3 ADD MLOAD DUP2 PUSH1 0x2 ADD SSTORE PUSH1 0x60 DUP3 ADD MLOAD DUP2 PUSH1 0x3 ADD PUSH1 0x0 PUSH2 0x100 EXP DUP2 SLOAD DUP2 PUSH1 0xFF MUL NOT AND SWAP1 DUP4 ISZERO ISZERO MUL OR SWAP1 SSTORE POP SWAP1 POP POP PUSH32 0xCD613ED337E0507220DAE4EE9A4ABC53280C43016D259A8EA66BF5E8BFE57B87 PUSH1 0x2 SLOAD DUP4 DUP4 PUSH1 0x40 MLOAD PUSH2 0x7A7 SWAP4 SWAP3 SWAP2 SWAP1 PUSH2 0x1307 JUMP JUMPDEST PUSH1 0x40 MLOAD DUP1 SWAP2 SUB SWAP1 LOG1 POP POP JUMP JUMPDEST PUSH1 0x0 DUP1 PUSH1 0x0 SWAP1 SLOAD SWAP1 PUSH2 0x100 EXP SWAP1 DIV PUSH20 0xFFFFFFFFFFFFFFFFFFFFFFFFFFFFFFFFFFFFFFFF AND SWAP1 POP SWAP1 JUMP JUMPDEST PUSH1 0x2 SLOAD DUP2 JUMP JUMPDEST PUSH2 0x7EA PUSH2 0x868 JUMP JUMPDEST PUSH1 0x0 PUSH20 0xFFFFFFFFFFFFFFFFFFFFFFFFFFFFFFFFFFFFFFFF AND DUP2 PUSH20 0xFFFFFFFFFFFFFFFFFFFFFFFFFFFFFFFFFFFFFFFF AND SUB PUSH2 0x85C JUMPI PUSH1 0x0 PUSH1 0x40 MLOAD PUSH32 0x1E4FBDF700000000000000000000000000000000000000000000000000000000 DUP2 MSTORE PUSH1 0x4 ADD PUSH2 0x853 SWAP2 SWAP1 PUSH2 0xD76 JUMP JUMPDEST PUSH1 0x40 MLOAD DUP1 SWAP2 SUB SWAP1 REVERT JUMPDEST PUSH2 0x865 DUP2 PUSH2 0x8EF JUMP JUMPDEST POP JUMP JUMPDEST PUSH2 0x870 PUSH2 0x9B3 JUMP JUMPDEST PUSH20 0xFFFFFFFFFFFFFFFFFFFFFFFFFFFFFFFFFFFFFFFF AND PUSH2 0x88E PUSH2 0x7B3 JUMP JUMPDEST PUSH20 0xFFFFFFFFFFFFFFFFFFFFFFFFFFFFFFFFFFFFFFFF AND EQ PUSH2 0x8ED JUMPI PUSH2 0x8B1 PUSH2 0x9B3 JUMP JUMPDEST PUSH1 0x40 MLOAD PUSH32 0x118CDAA700000000000000000000000000000000000000000000000000000000 DUP2 MSTORE PUSH1 0x4 ADD PUSH2 0x8E4 SWAP2 SWAP1 PUSH2 0xD76 JUMP JUMPDEST PUSH1 0x40 MLOAD DUP1 SWAP2 SUB SWAP1 REVERT JUMPDEST JUMP JUMPDEST PUSH1 0x0 DUP1 PUSH1 0x0 SWAP1 SLOAD SWAP1 PUSH2 0x100 EXP SWAP1 DIV PUSH20 0xFFFFFFFFFFFFFFFFFFFFFFFFFFFFFFFFFFFFFFFF AND SWAP1 POP DUP2 PUSH1 0x0 DUP1 PUSH2 0x100 EXP DUP2 SLOAD DUP2 PUSH20 0xFFFFFFFFFFFFFFFFFFFFFFFFFFFFFFFFFFFFFFFF MUL NOT AND SWAP1 DUP4 PUSH20 0xFFFFFFFFFFFFFFFFFFFFFFFFFFFFFFFFFFFFFFFF AND MUL OR SWAP1 SSTORE POP DUP2 PUSH20 0xFFFFFFFFFFFFFFFFFFFFFFFFFFFFFFFFFFFFFFFF AND DUP2 PUSH20 0xFFFFFFFFFFFFFFFFFFFFFFFFFFFFFFFFFFFFFFFF AND PUSH32 0x8BE0079C531659141344CD1FD0A4F28419497F9722A3DAAFE3B4186F6B6457E0 PUSH1 0x40 MLOAD PUSH1 0x40 MLOAD DUP1 SWAP2 SUB SWAP1 LOG3 POP POP JUMP JUMPDEST PUSH1 0x0 CALLER SWAP1 POP SWAP1 JUMP JUMPDEST PUSH1 0x0 PUSH1 0x40 MLOAD SWAP1 POP SWAP1 JUMP JUMPDEST PUSH1 0x0 DUP1 REVERT JUMPDEST PUSH1 0x0 DUP1 REVERT JUMPDEST PUSH1 0x0 DUP2 SWAP1 POP SWAP2 SWAP1 POP JUMP JUMPDEST PUSH2 0x9E2 DUP2 PUSH2 0x9CF JUMP JUMPDEST DUP2 EQ PUSH2 0x9ED JUMPI PUSH1 0x0 DUP1 REVERT JUMPDEST POP JUMP JUMPDEST PUSH1 0x0 DUP2 CALLDATALOAD SWAP1 POP PUSH2 0x9FF DUP2 PUSH2 0x9D9 JUMP JUMPDEST SWAP3 SWAP2 POP POP JUMP JUMPDEST PUSH1 0x0 PUSH20 0xFFFFFFFFFFFFFFFFFFFFFFFFFFFFFFFFFFFFFFFF DUP3 AND SWAP1 POP SWAP2 SWAP1 POP JUMP JUMPDEST PUSH1 0x0 PUSH2 0xA30 DUP3 PUSH2 0xA05 JUMP JUMPDEST SWAP1 POP SWAP2 SWAP1 POP JUMP JUMPDEST PUSH2 0xA40 DUP2 PUSH2 0xA25 JUMP JUMPDEST DUP2 EQ PUSH2 0xA4B JUMPI PUSH1 0x0 DUP1 REVERT JUMPDEST POP JUMP JUMPDEST PUSH1 0x0 DUP2 CALLDATALOAD SWAP1 POP PUSH2 0xA5D DUP2 PUSH2 0xA37 JUMP JUMPDEST SWAP3 SWAP2 POP POP JUMP JUMPDEST PUSH1 0x0 DUP1 PUSH1 0x40 DUP4 DUP6 SUB SLT ISZERO PUSH2 0xA7A JUMPI PUSH2 0xA79 PUSH2 0x9C5 JUMP JUMPDEST JUMPDEST PUSH1 0x0 PUSH2 0xA88 DUP6 DUP3 DUP7 ADD PUSH2 0x9F0 JUMP JUMPDEST SWAP3 POP POP PUSH1 0x20 PUSH2 0xA99 DUP6 DUP3 DUP7 ADD PUSH2 0xA4E JUMP JUMPDEST SWAP2 POP POP SWAP3 POP SWAP3 SWAP1 POP JUMP JUMPDEST PUSH1 0x0 PUSH1 0x20 DUP3 DUP5 SUB SLT ISZERO PUSH2 0xAB9 JUMPI PUSH2 0xAB8 PUSH2 0x9C5 JUMP JUMPDEST JUMPDEST PUSH1 0x0 PUSH2 0xAC7 DUP5 DUP3 DUP6 ADD PUSH2 0x9F0 JUMP JUMPDEST SWAP2 POP POP SWAP3 SWAP2 POP POP JUMP JUMPDEST PUSH1 0x0 DUP2 MLOAD SWAP1 POP SWAP2 SWAP1 POP JUMP JUMPDEST PUSH1 0x0 DUP3 DUP3 MSTORE PUSH1 0x20 DUP3 ADD SWAP1 POP SWAP3 SWAP2 POP POP JUMP JUMPDEST PUSH1 0x0 JUMPDEST DUP4 DUP2 LT ISZERO PUSH2 0xB0A JUMPI DUP1 DUP3 ADD MLOAD DUP2 DUP5 ADD MSTORE PUSH1 0x20 DUP2 ADD SWAP1 POP PUSH2 0xAEF JUMP JUMPDEST PUSH1 0x0 DUP5 DUP5 ADD MSTORE POP POP POP POP JUMP JUMPDEST PUSH1 0x0 PUSH1 0x1F NOT PUSH1 0x1F DUP4 ADD AND SWAP1 POP SWAP2 SWAP1 POP JUMP JUMPDEST PUSH1 0x0 PUSH2 0xB32 DUP3 PUSH2 0xAD0 JUMP JUMPDEST PUSH2 0xB3C DUP2 DUP6 PUSH2 0xADB JUMP JUMPDEST SWAP4 POP PUSH2 0xB4C DUP2 DUP6 PUSH1 0x20 DUP7 ADD PUSH2 0xAEC JUMP JUMPDEST PUSH2 0xB55 DUP2 PUSH2 0xB16 JUMP JUMPDEST DUP5 ADD SWAP2 POP POP SWAP3 SWAP2 POP POP JUMP JUMPDEST PUSH2 0xB69 DUP2 PUSH2 0xA25 JUMP JUMPDEST DUP3 MSTORE POP POP JUMP JUMPDEST PUSH2 0xB78 DUP2 PUSH2 0x9CF JUMP JUMPDEST DUP3 MSTORE POP POP JUMP JUMPDEST PUSH1 0x0 DUP2 ISZERO ISZERO SWAP1 POP SWAP2 SWAP1 POP JUMP JUMPDEST PUSH2 0xB93 DUP2 PUSH2 0xB7E JUMP JUMPDEST DUP3 MSTORE POP POP JUMP JUMPDEST PUSH1 0x0 PUSH1 0x80 DUP3 ADD SWAP1 POP DUP2 DUP2 SUB PUSH1 0x0 DUP4 ADD MSTORE PUSH2 0xBB3 DUP2 DUP8 PUSH2 0xB27 JUMP JUMPDEST SWAP1 POP PUSH2 0xBC2 PUSH1 0x20 DUP4 ADD DUP7 PUSH2 0xB60 JUMP JUMPDEST PUSH2 0xBCF PUSH1 0x40 DUP4 ADD DUP6 PUSH2 0xB6F JUMP JUMPDEST PUSH2 0xBDC PUSH1 0x60 DUP4 ADD DUP5 PUSH2 0xB8A JUMP JUMPDEST SWAP6 SWAP5 POP POP POP POP POP JUMP JUMPDEST PUSH1 0x0 DUP1 REVERT JUMPDEST PUSH1 0x0 DUP1 REVERT JUMPDEST PUSH32 0x4E487B7100000000000000000000000000000000000000000000000000000000 PUSH1 0x0 MSTORE PUSH1 0x41 PUSH1 0x4 MSTORE PUSH1 0x24 PUSH1 0x0 REVERT JUMPDEST PUSH2 0xC27 DUP3 PUSH2 0xB16 JUMP JUMPDEST DUP2 ADD DUP2 DUP2 LT PUSH8 0xFFFFFFFFFFFFFFFF DUP3 GT OR ISZERO PUSH2 0xC46 JUMPI PUSH2 0xC45 PUSH2 0xBEF JUMP JUMPDEST JUMPDEST DUP1 PUSH1 0x40 MSTORE POP POP POP JUMP JUMPDEST PUSH1 0x0 PUSH2 0xC59 PUSH2 0x9BB JUMP JUMPDEST SWAP1 POP PUSH2 0xC65 DUP3 DUP3 PUSH2 0xC1E JUMP JUMPDEST SWAP2 SWAP1 POP JUMP JUMPDEST PUSH1 0x0 PUSH8 0xFFFFFFFFFFFFFFFF DUP3 GT ISZERO PUSH2 0xC85 JUMPI PUSH2 0xC84 PUSH2 0xBEF JUMP JUMPDEST JUMPDEST PUSH2 0xC8E DUP3 PUSH2 0xB16 JUMP JUMPDEST SWAP1 POP PUSH1 0x20 DUP2 ADD SWAP1 POP SWAP2 SWAP1 POP JUMP JUMPDEST DUP3 DUP2 DUP4 CALLDATACOPY PUSH1 0x0 DUP4 DUP4 ADD MSTORE POP POP POP JUMP JUMPDEST PUSH1 0x0 PUSH2 0xCBD PUSH2 0xCB8 DUP5 PUSH2 0xC6A JUMP JUMPDEST PUSH2 0xC4F JUMP JUMPDEST SWAP1 POP DUP3 DUP2 MSTORE PUSH1 0x20 DUP2 ADD DUP5 DUP5 DUP5 ADD GT ISZERO PUSH2 0xCD9 JUMPI PUSH2 0xCD8 PUSH2 0xBEA JUMP JUMPDEST JUMPDEST PUSH2 0xCE4 DUP5 DUP3 DUP6 PUSH2 0xC9B JUMP JUMPDEST POP SWAP4 SWAP3 POP POP POP JUMP JUMPDEST PUSH1 0x0 DUP3 PUSH1 0x1F DUP4 ADD SLT PUSH2 0xD01 JUMPI PUSH2 0xD00 PUSH2 0xBE5 JUMP JUMPDEST JUMPDEST DUP2 CALLDATALOAD PUSH2 0xD11 DUP5 DUP3 PUSH1 0x20 DUP7 ADD PUSH2 0xCAA JUMP JUMPDEST SWAP2 POP POP SWAP3 SWAP2 POP POP JUMP JUMPDEST PUSH1 0x0 DUP1 PUSH1 0x40 DUP4 DUP6 SUB SLT ISZERO PUSH2 0xD31 JUMPI PUSH2 0xD30 PUSH2 0x9C5 JUMP JUMPDEST JUMPDEST PUSH1 0x0 DUP4 ADD CALLDATALOAD PUSH8 0xFFFFFFFFFFFFFFFF DUP2 GT ISZERO PUSH2 0xD4F JUMPI PUSH2 0xD4E PUSH2 0x9CA JUMP JUMPDEST JUMPDEST PUSH2 0xD5B DUP6 DUP3 DUP7 ADD PUSH2 0xCEC JUMP JUMPDEST SWAP3 POP POP PUSH1 0x20 PUSH2 0xD6C DUP6 DUP3 DUP7 ADD PUSH2 0x9F0 JUMP JUMPDEST SWAP2 POP POP SWAP3 POP SWAP3 SWAP1 POP JUMP JUMPDEST PUSH1 0x0 PUSH1 0x20 DUP3 ADD SWAP1 POP PUSH2 0xD8B PUSH1 0x0 DUP4 ADD DUP5 PUSH2 0xB60 JUMP JUMPDEST SWAP3 SWAP2 POP POP JUMP JUMPDEST PUSH1 0x0 PUSH1 0x20 DUP3 ADD SWAP1 POP PUSH2 0xDA6 PUSH1 0x0 DUP4 ADD DUP5 PUSH2 0xB6F JUMP JUMPDEST SWAP3 SWAP2 POP POP JUMP JUMPDEST PUSH1 0x0 PUSH1 0x20 DUP3 DUP5 SUB SLT ISZERO PUSH2 0xDC2 JUMPI PUSH2 0xDC1 PUSH2 0x9C5 JUMP JUMPDEST JUMPDEST PUSH1 0x0 PUSH2 0xDD0 DUP5 DUP3 DUP6 ADD PUSH2 0xA4E JUMP JUMPDEST SWAP2 POP POP SWAP3 SWAP2 POP POP JUMP JUMPDEST PUSH32 0x5363686F6C61727368697020646F6573206E6F74206578697374000000000000 PUSH1 0x0 DUP3 ADD MSTORE POP JUMP JUMPDEST PUSH1 0x0 PUSH2 0xE0F PUSH1 0x1A DUP4 PUSH2 0xADB JUMP JUMPDEST SWAP2 POP PUSH2 0xE1A DUP3 PUSH2 0xDD9 JUMP JUMPDEST PUSH1 0x20 DUP3 ADD SWAP1 POP SWAP2 SWAP1 POP JUMP JUMPDEST PUSH1 0x0 PUSH1 0x20 DUP3 ADD SWAP1 POP DUP2 DUP2 SUB PUSH1 0x0 DUP4 ADD MSTORE PUSH2 0xE3E DUP2 PUSH2 0xE02 JUMP JUMPDEST SWAP1 POP SWAP2 SWAP1 POP JUMP JUMPDEST PUSH32 0x416C72656164792061737369676E656400000000000000000000000000000000 PUSH1 0x0 DUP3 ADD MSTORE POP JUMP JUMPDEST PUSH1 0x0 PUSH2 0xE7B PUSH1 0x10 DUP4 PUSH2 0xADB JUMP JUMPDEST SWAP2 POP PUSH2 0xE86 DUP3 PUSH2 0xE45 JUMP JUMPDEST PUSH1 0x20 DUP3 ADD SWAP1 POP SWAP2 SWAP1 POP JUMP JUMPDEST PUSH1 0x0 PUSH1 0x20 DUP3 ADD SWAP1 POP DUP2 DUP2 SUB PUSH1 0x0 DUP4 ADD MSTORE PUSH2 0xEAA DUP2 PUSH2 0xE6E JUMP JUMPDEST SWAP1 POP SWAP2 SWAP1 POP JUMP JUMPDEST PUSH32 0x4E487B7100000000000000000000000000000000000000000000000000000000 PUSH1 0x0 MSTORE PUSH1 0x22 PUSH1 0x4 MSTORE PUSH1 0x24 PUSH1 0x0 REVERT JUMPDEST PUSH1 0x0 PUSH1 0x2 DUP3 DIV SWAP1 POP PUSH1 0x1 DUP3 AND DUP1 PUSH2 0xEF8 JUMPI PUSH1 0x7F DUP3 AND SWAP2 POP JUMPDEST PUSH1 0x20 DUP3 LT DUP2 SUB PUSH2 0xF0B JUMPI PUSH2 0xF0A PUSH2 0xEB1 JUMP JUMPDEST JUMPDEST POP SWAP2 SWAP1 POP JUMP JUMPDEST PUSH32 0x4E6F20726563697069656E742061737369676E65640000000000000000000000 PUSH1 0x0 DUP3 ADD MSTORE POP JUMP JUMPDEST PUSH1 0x0 PUSH2 0xF47 PUSH1 0x15 DUP4 PUSH2 0xADB JUMP JUMPDEST SWAP2 POP PUSH2 0xF52 DUP3 PUSH2 0xF11 JUMP JUMPDEST PUSH1 0x20 DUP3 ADD SWAP1 POP SWAP2 SWAP1 POP JUMP JUMPDEST PUSH1 0x0 PUSH1 0x20 DUP3 ADD SWAP1 POP DUP2 DUP2 SUB PUSH1 0x0 DUP4 ADD MSTORE PUSH2 0xF76 DUP2 PUSH2 0xF3A JUMP JUMPDEST SWAP1 POP SWAP2 SWAP1 POP JUMP JUMPDEST PUSH32 0x416C726561647920646973627572736564000000000000000000000000000000 PUSH1 0x0 DUP3 ADD MSTORE POP JUMP JUMPDEST PUSH1 0x0 PUSH2 0xFB3 PUSH1 0x11 DUP4 PUSH2 0xADB JUMP JUMPDEST SWAP2 POP PUSH2 0xFBE DUP3 PUSH2 0xF7D JUMP JUMPDEST PUSH1 0x20 DUP3 ADD SWAP1 POP SWAP2 SWAP1 POP JUMP JUMPDEST PUSH1 0x0 PUSH1 0x20 DUP3 ADD SWAP1 POP DUP2 DUP2 SUB PUSH1 0x0 DUP4 ADD MSTORE PUSH2 0xFE2 DUP2 PUSH2 0xFA6 JUMP JUMPDEST SWAP1 POP SWAP2 SWAP1 POP JUMP JUMPDEST PUSH1 0x0 PUSH1 0x40 DUP3 ADD SWAP1 POP PUSH2 0xFFE PUSH1 0x0 DUP4 ADD DUP6 PUSH2 0xB6F JUMP JUMPDEST PUSH2 0x100B PUSH1 0x20 DUP4 ADD DUP5 PUSH2 0xB60 JUMP JUMPDEST SWAP4 SWAP3 POP POP POP JUMP JUMPDEST PUSH32 0x4E487B7100000000000000000000000000000000000000000000000000000000 PUSH1 0x0 MSTORE PUSH1 0x11 PUSH1 0x4 MSTORE PUSH1 0x24 PUSH1 0x0 REVERT JUMPDEST PUSH1 0x0 PUSH2 0x104C DUP3 PUSH2 0x9CF JUMP JUMPDEST SWAP2 POP PUSH32 0xFFFFFFFFFFFFFFFFFFFFFFFFFFFFFFFFFFFFFFFFFFFFFFFFFFFFFFFFFFFFFFFF DUP3 SUB PUSH2 0x107E JUMPI PUSH2 0x107D PUSH2 0x1012 JUMP JUMPDEST JUMPDEST PUSH1 0x1 DUP3 ADD SWAP1 POP SWAP2 SWAP1 POP JUMP JUMPDEST PUSH1 0x0 DUP2 SWAP1 POP DUP2 PUSH1 0x0 MSTORE PUSH1 0x20 PUSH1 0x0 KECCAK256 SWAP1 POP SWAP2 SWAP1 POP JUMP JUMPDEST PUSH1 0x0 PUSH1 0x20 PUSH1 0x1F DUP4 ADD DIV SWAP1 POP SWAP2 SWAP1 POP JUMP JUMPDEST PUSH1 0x0 DUP3 DUP3 SHL SWAP1 POP SWAP3 SWAP2 POP POP JUMP JUMPDEST PUSH1 0x0 PUSH1 0x8 DUP4 MUL PUSH2 0x10EB PUSH32 0xFFFFFFFFFFFFFFFFFFFFFFFFFFFFFFFFFFFFFFFFFFFFFFFFFFFFFFFFFFFFFFFF DUP3 PUSH2 0x10AE JUMP JUMPDEST PUSH2 0x10F5 DUP7 DUP4 PUSH2 0x10AE JUMP JUMPDEST SWAP6 POP DUP1 NOT DUP5 AND SWAP4 POP DUP1 DUP7 AND DUP5 OR SWAP3 POP POP POP SWAP4 SWAP3 POP POP POP JUMP JUMPDEST PUSH1 0x0 DUP2 SWAP1 POP SWAP2 SWAP1 POP JUMP JUMPDEST PUSH1 0x0 PUSH2 0x1132 PUSH2 0x112D PUSH2 0x1128 DUP5 PUSH2 0x9CF JUMP JUMPDEST PUSH2 0x110D JUMP JUMPDEST PUSH2 0x9CF JUMP JUMPDEST SWAP1 POP SWAP2 SWAP1 POP JUMP JUMPDEST PUSH1 0x0 DUP2 SWAP1 POP SWAP2 SWAP1 POP JUMP JUMPDEST PUSH2 0x114C DUP4 PUSH2 0x1117 JUMP JUMPDEST PUSH2 0x1160 PUSH2 0x1158 DUP3 PUSH2 0x1139 JUMP JUMPDEST DUP5 DUP5 SLOAD PUSH2 0x10BB JUMP JUMPDEST DUP3 SSTORE POP POP POP POP JUMP JUMPDEST PUSH1 0x0 SWAP1 JUMP JUMPDEST PUSH2 0x1175 PUSH2 0x1168 JUMP JUMPDEST PUSH2 0x1180 DUP2 DUP5 DUP5 PUSH2 0x1143 JUMP JUMPDEST POP POP POP JUMP JUMPDEST JUMPDEST DUP2 DUP2 LT ISZERO PUSH2 0x11A4 JUMPI PUSH2 0x1199 PUSH1 0x0 DUP3 PUSH2 0x116D JUMP JUMPDEST PUSH1 0x1 DUP2 ADD SWAP1 POP PUSH2 0x1186 JUMP JUMPDEST POP POP JUMP JUMPDEST PUSH1 0x1F DUP3 GT ISZERO PUSH2 0x11E9 JUMPI PUSH2 0x11BA DUP2 PUSH2 0x1089 JUMP JUMPDEST PUSH2 0x11C3 DUP5 PUSH2 0x109E JUMP JUMPDEST DUP2 ADD PUSH1 0x20 DUP6 LT ISZERO PUSH2 0x11D2 JUMPI DUP2 SWAP1 POP JUMPDEST PUSH2 0x11E6 PUSH2 0x11DE DUP6 PUSH2 0x109E JUMP JUMPDEST DUP4 ADD DUP3 PUSH2 0x1185 JUMP JUMPDEST POP POP JUMPDEST POP POP POP JUMP JUMPDEST PUSH1 0x0 DUP3 DUP3 SHR SWAP1 POP SWAP3 SWAP2 POP POP JUMP JUMPDEST PUSH1 0x0 PUSH2 0x120C PUSH1 0x0 NOT DUP5 PUSH1 0x8 MUL PUSH2 0x11EE JUMP JUMPDEST NOT DUP1 DUP4 AND SWAP2 POP POP SWAP3 SWAP2 POP POP JUMP JUMPDEST PUSH1 0x0 PUSH2 0x1225 DUP4 DUP4 PUSH2 0x11FB JUMP JUMPDEST SWAP2 POP DUP3 PUSH1 0x2 MUL DUP3 OR SWAP1 POP SWAP3 SWAP2 POP POP JUMP JUMPDEST PUSH2 0x123E DUP3 PUSH2 0xAD0 JUMP JUMPDEST PUSH8 0xFFFFFFFFFFFFFFFF DUP2 GT ISZERO PUSH2 0x1257 JUMPI PUSH2 0x1256 PUSH2 0xBEF JUMP JUMPDEST JUMPDEST PUSH2 0x1261 DUP3 SLOAD PUSH2 0xEE0 JUMP JUMPDEST PUSH2 0x126C DUP3 DUP3 DUP6 PUSH2 0x11A8 JUMP JUMPDEST PUSH1 0x0 PUSH1 0x20 SWAP1 POP PUSH1 0x1F DUP4 GT PUSH1 0x1 DUP2 EQ PUSH2 0x129F JUMPI PUSH1 0x0 DUP5 ISZERO PUSH2 0x128D JUMPI DUP3 DUP8 ADD MLOAD SWAP1 POP JUMPDEST PUSH2 0x1297 DUP6 DUP3 PUSH2 0x1219 JUMP JUMPDEST DUP7 SSTORE POP PUSH2 0x12FF JUMP JUMPDEST PUSH1 0x1F NOT DUP5 AND PUSH2 0x12AD DUP7 PUSH2 0x1089 JUMP JUMPDEST PUSH1 0x0 JUMPDEST DUP3 DUP2 LT ISZERO PUSH2 0x12D5 JUMPI DUP5 DUP10 ADD MLOAD DUP3 SSTORE PUSH1 0x1 DUP3 ADD SWAP2 POP PUSH1 0x20 DUP6 ADD SWAP5 POP PUSH1 0x20 DUP2 ADD SWAP1 POP PUSH2 0x12B0 JUMP JUMPDEST DUP7 DUP4 LT ISZERO PUSH2 0x12F2 JUMPI DUP5 DUP10 ADD MLOAD PUSH2 0x12EE PUSH1 0x1F DUP10 AND DUP3 PUSH2 0x11FB JUMP JUMPDEST DUP4 SSTORE POP JUMPDEST PUSH1 0x1 PUSH1 0x2 DUP9 MUL ADD DUP9 SSTORE POP POP POP JUMPDEST POP POP POP POP POP POP JUMP JUMPDEST PUSH1 0x0 PUSH1 0x60 DUP3 ADD SWAP1 POP PUSH2 0x131C PUSH1 0x0 DUP4 ADD DUP7 PUSH2 0xB6F JUMP JUMPDEST DUP2 DUP2 SUB PUSH1 0x20 DUP4 ADD MSTORE PUSH2 0x132E DUP2 DUP6 PUSH2 0xB27 JUMP JUMPDEST SWAP1 POP PUSH2 0x133D PUSH1 0x40 DUP4 ADD DUP5 PUSH2 0xB6F JUMP JUMPDEST SWAP5 SWAP4 POP POP POP POP JUMP INVALID LOG2 PUSH5 0x6970667358 0x22 SLT KECCAK256 DUP16 0xC1 0xF7 0xBF 0xB0 0x5C SWAP2 CALL DUP14 CALLVALUE 0xD0 PUSH30 0x80D87714C4143358E5FFA719F007837998D0C91E64736F6C634300081400 CALLER "},"methodIdentifiers":{"applyForScholarship(uint256,address)":"0e626b5e","createScholarship(string,uint256)":"7acdaf65","disburseScholarship(uint256)":"50bac3e9","owner()":"8da5cb5b","renounceOwnership()":"715018a6","scholarshipCount()":"bb906f09","scholarships(uint256)":"39dc58c6","transferOwnership(address)":"f2fde38b"}}}}}